:100000006F00C01413000000130000001300000074
:100010001300000013000000130000001300000094
:100020001300000013000000130000001300000084
:08003000130000007300100032
:100038006FF09FFC000000006F20A07D6F20607EA5
:1000480000000000000000000000000000000000A8
:100058000000000000000000000000000000000098
:100068006FF09FF9000000006FF01FF9000000001A
:100078006FF09FF86FF05FF86FF01FF86FF0DFF721
:100088006FF09FF76FF05FF76F20C0286F20C02ACE
:100098006F20A02E6F20A0306F20A0326FF0DFF508
:1000A8006FF09FF56FF05FF56F2080726FF0DFF4EF
:1000B8006FF09FF46FF05FF46F20C0450000000000
:1000C8000000000000000000000000006F20A031C8
:1000D8006F2040456F2040486F20004B6F204050F4
:1000E8006F2000596F20405B6F20005E6FF0DFF0DB
:1000F8006FF09FF06FF05FF06FF01FF06FF0DFEFC1
:100108006FF09FEF6F20405F6F2020646F200069C1
:100118006F2060366FF05FEE6FF01FEE6F20401EAD
:1001280000000000000000000000000000000000C7
:080138000000000000000000BF
:10014000737504308280731005308280970100201F
:100150009381416C175100201301C1EA173500004B
:100160001305C5AA970500209385C5E9138601816B
:1001700063FAC5008322050023A0550011059105EF
:10018000E3EAC5FE13850181938581866377B50017
:10019000232005001105E36DB5FEB7220000938210
:1001A000828873A0023097020000938222E993E2D2
:1001B000120073905230EF1020219722000093829A
:1001C00082677390123473002030797122D6001840
:1001D000232EA4FC232604FE232404FE0327C4FDAF
:1001E000B7070010F98F89CBB70702409387074004
:1001F0009C432324F4FE31A0B70702409C432324F0
:10020000F4FE032784FE8327C4FDF98F89C7854741
:100210002326F4FE19A0232604FE8327C4FE3E8570
:10022000325445618280011122CE00102326A4FEA3
:100230000327C4FEB7070010F98F89CBB707024028
:10024000938707400327C4FED8C331A0B7070240F5
:100250000327C4FED8C3010072440561828079710E
:1002600022D60018232EA4FC232604FE232404FEF9
:10027000B7070140938707409C430327C4FDF98FCC
:100280002324F4FEB707014093870740D84B832708
:10029000C4FDF98F81CB832784FE89C78547232638
:1002A000F4FE19A0232604FE8327C4FE3E853254A3
:1002B00045618280011122CE00102326A4FEB707DB
:1002C0000140938707400327C4FED8CB0100724446
:1002D00005618280011106CE22CC00102326A4FEE7
:1002E0000327C4FEB7170140938707806319F700FF
:1002F00085451145092F81451145312775A80327EB
:10030000C4FEB7170140938707C06319F7008545FE
:100310002145D52D81452145FD2579A80327C4FE1A
:10032000B71701406319F70085454145E92D81451F
:100330004145D12D51A00327C4FEB7170140938733
:100340000740631BF7008545130500026D2D8145AD
:10035000130500024D2D8DA00327C4FEB7270140D1
:1003600093870780631BF700854513050004612D03
:10037000814513050004412D81A00327C4FEB72742
:100380000140938707C0631BF700854513050008EC
:100390009D2D814513050008BD2539A80327C4FEFE
:1003A000B7270140631AF700854513050010A12DFA
:1003B000814513050010812D0100F2406244056162
:1003C0008280397122DE80002326A4FC2324B4FC21
:1003D000232604FE232004FE232404FE232E04FCF3
:1003E000232204FE232C04FC832784FC9C47BD8B22
:1003F0002326F4FE832784FC9C47C18B89CB83276B
:1004000084FCDC430327C4FED98F2326F4FE832714
:1004100084FC83D7070093F7F70FF1CF8327C4FC41
:100420009C432322F4FE232404FE65A8832784FE34
:100430000547B317F700232EF4FC832784FC83D7EA
:1004400007003E878327C4FDF98F2320F4FE03278E
:1004500004FE8327C4FD6311F708832784FE8A07FF
:10046000232EF4FC8327C4FD3D47B317F700232C4C
:10047000F4FC832784FD93C7F7FF032744FEF98F1D
:100480002322F4FE8327C4FD0327C4FEB317F7001D
:10049000032744FED98F2322F4FE832784FC984748
:1004A00093078002631BF700832784FE05473317F9
:1004B000F7008327C4FCD8CB05A0832784FC98478A
:1004C00093078004631AF700832784FE05473317D8
:1004D000F7008327C4FC98CB832784FE8507232459
:1004E000F4FE032784FE9D47E3F2E7F48327C4FC70
:1004F000032744FE98C3832784FC03D70700930790
:10050000F00F63F1E70E8327C4FCDC432322F4FEE3
:10051000232404FE75A8832784FEA1070547B3178B
:10052000F700232EF4FC832784FC83D707003E8743
:100530008327C4FDF98F2320F4FE032704FE8327BD
:10054000C4FD6312F708832784FE8A07232EF4FC78
:100550008327C4FD3D47B317F700232CF4FC832702
:1005600084FD93C7F7FF032744FEF98F2322F4FE8F
:100570008327C4FD0327C4FEB317F700032744FEF7
:10058000D98F2322F4FE832784FC984793078002A7
:10059000631BF700832784FEA10705473317F70085
:1005A0008327C4FCD8CB832784FC98479307800417
:1005B000631BF700832784FEA10705473317F70065
:1005C0008327C4FC98CB832784FE85072324F4FE6D
:1005D000032784FE9D47E3F0E7F48327C4FC032749
:1005E00044FED8C30100725421618280011122CEE1
:1005F00000102326A4FEAE872322C4FE2315F4FE9A
:10060000832744FE99C70357A4FE8327C4FE98CBD3
:1006100031A00357A4FE8327C4FED8CB0100724447
:1006200005618280797122D60018232EA4FC232C28
:10063000B4FC232404FE232204FE232604FE2320EC
:1006400004FE8327C4FD63D80700B7070140DC4FD1
:100650002326F4FE31A0B7070140DC432326F4FE35
:100660008327C4FDC183BD8B2320F4FE0327C4FD73
:10067000C167FD17F98F2324F4FE0327C4FDB707D4
:1006800030007D8FB70730006315F7020327C4FEE3
:10069000B70700F1FD17F98F2326F4FEB7070140D5
:1006A000D443B7070140370700F17D17758FD8C3D2
:1006B000ADA00327C4FDB7071000F98F8DCB8327AA
:1006C00004FE0D47B317F7002322F4FE832744FEF0
:1006D00093C7F7FF0327C4FEF98F2326F4FE0327F1
:1006E000C4FEB707000FD98F2326F4FE3DA0832751
:1006F000C4FDD5839207032784FEB317F70093C781
:10070000F7FF0327C4FEF98F2326F4FE0327C4FE58
:10071000B707000FD98F2326F4FE832784FD91CFDE
:100720008327C4FDD5839207032784FEB317F70000
:100730000327C4FED98F2326F4FE8327C4FD63D884
:100740000700B70701400327C4FED8CF31A0B70781
:1007500001400327C4FED8C30100325445618280A2
:10076000797122D60018232EA4FC232604FE23240C
:1007700004FE232204FE232004FEB7170240DC43BC
:10078000B18B2326F4FE0327C4FE91476302F702D0
:100790000327C4FEA1476305F7028327C4FEC5E70C
:1007A0008327C4FD37177A001307072098C365A075
:1007B0008327C4FD37177A001307072098C361A861
:1007C000B7170240D843B7073C00F98F2324F4FE43
:1007D000B7170240D843C167F98F2322F4FE83275D
:1007E00084FEC98389072324F4FE832744FE89EF0E
:1007F000032784FEB7173D00938707903307F7025E
:100800008327C4FD98C381A8B7170240D843B70710
:100810000200F98F89CF032784FEB7173D00938725
:1008200007903307F7028327C4FD98C32DA0032741
:1008300084FEB7177A00938707203307F7028327D0
:10084000C4FD98C309A88327C4FD37177A0013078E
:10085000072098C30100B7170240DC4393F7070F46
:100860002326F4FE8327C4FE91832326F4FEB707D4
:100870000020138707008327C4FEBA9783C70700A9
:1008800093F7F70F2320F4FE8327C4FD98438327B3
:1008900004FE3357F7008327C4FDD8C3B7170240BF
:1008A000DC4393F707702326F4FE8327C4FEA1835D
:1008B0002326F4FEB7070020138707008327C4FE12
:1008C000BA9783C7070093F7F70F2320F4FE832717
:1008D000C4FDD843832704FE3357F7008327C4FDA4
:1008E00098C7B7170240D843916793870780F98F5D
:1008F0002326F4FE8327C4FEAD832326F4FEB70728
:100900000020138707008327C4FEBA9783C7070018
:1009100093F7F70F2320F4FE8327C4FDD8438327E2
:1009200004FE3357F7008327C4FDD8C7B71702402A
:10093000D843B167F98F2326F4FE8327C4FEB98319
:100940002326F4FEB7070020138707018327C4FE80
:10095000BA9783C7070093F7F70F2320F4FE832786
:10096000C4FDD847832704FE3357F7028327C4FD0D
:1009700098CB0100325445618280011122CE0010D3
:100980002326A4FE2324B4FE832784FE99CBB71725
:100990000240944FB71702400327C4FE558F98CFEB
:1009A00021A8B7170240944F8327C4FE13C7F7FF4F
:1009B000B7170240758F98CF01007244056182809D
:1009C000011122CE00102326A4FE2324B4FE832787
:1009D00084FE99CBB7170240D44FB71702400327C4
:1009E000C4FE558FD8CF21A8B7170240D44F832714
:1009F000C4FE13C7F7FFB7170240758FD8CF0100A9
:100A0000724405618280011122CE00102326A4FECB
:100A10002324B4FE832784FE99CBB7170240D44722
:100A2000B71702400327C4FE558FD8C721A8B717B0
:100A30000240D4478327C4FE13C7F7FFB71702400D
:100A4000758FD8C70100724405618280797122D602
:100A50000018232EA4FCAE87231DF4FC232604FEDD
:100A6000231504FE231404FE8327C4FD83D7070146
:100A70001397070141838357A4FDF98F2315F4FED3
:100A80008327C4FD83D7C70013970701418383578A
:100A9000A4FDF98F2314F4FE8357A4FE81CB835762
:100AA00084FE89C785472326F4FE19A0232604FE69
:100AB0008327C4FE3E85325445618280011122CED7
:100AC00000102326A4FEAE872315F4FE8357A4FE50
:100AD00093C7F7FF1397070141838327C4FE239829
:100AE000E70001007244056182805D7186C6A2C480
:100AF0008008232EA4FA232CB4FA232604FE2324F0
:100B000004FE232204FE232004FE232E04FC83275C
:100B1000C4FB232EF4FC8327C4FB83D70701C20741
:100B2000C1832326F4FE0327C4FEB567FD17F98FA2
:100B30002326F4FE832784FB83D767003E87832721
:100B4000C4FED98F2326F4FE8327C4FE1397070122
:100B500041838327C4FB2398E7008327C4FB83D703
:100B6000C700C207C1832326F4FE0327C4FEBD6766
:100B70009387379FF98F2326F4FE832784FB03D7BF
:100B80004700832784FB83D78700D98F13970701FA
:100B90004183832784FB83D7A700D98FC207C183F2
:100BA0003E878327C4FED98F2326F4FE8327C4FE05
:100BB0001397070141838327C4FB2396E70083270C
:100BC000C4FB83D74701C207C1832326F4FE032752
:100BD000C4FEC1679387F7CFF98F2326F4FE8327DE
:100BE00084FB83D7C7003E878327C4FED98F232683
:100BF000F4FE8327C4FE1397070141838327C4FBB8
:100C0000239AE700930784FC3E85993E0327C4FDA1
:100C1000B7470140938707806317F700832744FD98
:100C20002324F4FE29A0832704FD2324F4FE832734
:100C3000C4FB83D7C700C207C183C207C18763D281
:100C40000702032784FEBA878607BA978E073E9766
:100C5000832784FB9C438607B357F7022322F4FEC5
:100C600005A0032784FEBA878607BA978E073E97AA
:100C7000832784FB9C438A07B357F7022322F4FEA1
:100C8000032744FE93074006B357F7029207232633
:100C9000F4FE8327C4FE13D7470093074006B3072B
:100CA000F702032744FEB307F7402320F4FE83270F
:100CB000C4FB83D7C700C207C183C207C18763D201
:100CC0000702832704FE8E07138727039307400636
:100CD000B357F7029D8B0327C4FED98F2326F4FE5A
:100CE00005A0832704FE9207138727039307400676
:100CF000B357F702BD8B0327C4FED98F2326F4FE1A
:100D00008327C4FE1397070141838327C4FB2394E1
:100D1000E7000100B640264461618280011122CEC5
:100D200000102326A4FE2324B4FE832784FE95C34B
:100D30008327C4FE83D7C7001397070141838967C0
:100D4000D98F1397070141838327C4FE2396E700B9
:100D500015A08327C4FE83D7C700139707014183DB
:100D6000F977FD17F98F1397070141838327C4FE95
:100D70002396E7000100724405618280797122D6D2
:100D80000018232EA4FCAE87231DF4FC232204FEAE
:100D9000232604FE232004FE232404FE8357A4FDFF
:100DA00093F7F70F958393F7F70F2320F4FE8357FC
:100DB000A4FDFD8B2326F4FE8327C4FE0547B3174D
:100DC000F7002326F4FE032704FE8547631FF70080
:100DD0008327C4FD83D7C700C207C1833E8783270B
:100DE000C4FEF98F2326F4FE3DA8032704FE89479D
:100DF000631FF7008327C4FD83D70701C207C183A0
:100E00003E878327C4FEF98F2326F4FE29A8832773
:100E1000C4FD83D74701C207C1833E878327C4FE31
:100E2000F98F2326F4FE8357A4FDA183C207C18353
:100E30002322F4FE832744FE0547B317F70023223D
:100E4000F4FE8327C4FD83D70700C207C1833E8712
:100E5000832744FEF98F2322F4FE8327C4FE81CB2F
:100E6000832744FE89C785472324F4FE19A0232441
:100E700004FE832784FE3E85325445618280797169
:100E800022D60018232EA4FCAE87231DF4FC2317C2
:100E900004FE231604FE8357A4FDA1832317F4FE4A
:100EA0008357E4FE0547B317F7002316F4FE835774
:100EB000C4FE93C7F7FF1397070141838327C4FD3F
:100EC0002390E7000100325445618280411106C63B
:100ED00022C4000883C7A18113F7F70F8547631E5B
:100EE000F7028D6783A707A883D7470013960701EA
:100EF000418283C7B18193F7F70F13871700937669
:100F0000F70FA38DD180BE861377F60F9387818468
:100F1000B6972380E700B12081A083C7A18113F792
:100F2000F70F8947631CF70083C7B18193F7F70F69
:100F3000850713F7F70FA38DE18039A80547238CA8
:100F4000E1808D6783A707A883D74700C207C183C5
:100F500013F7F70FA38CE1800100B2402244410156
:100F60008280411106C622C4000883C7B18113F7ED
:100F7000F70F8D4763F7E70283C7B18193F7F70F48
:100F80001387C7FF93878184BA971146BE858D6703
:100F900013854795EF103019AA8781E70547238EFF
:100FA000E1800100B240224441018280411122C609
:100FB00000088D67938707A8DC4383D74700139702
:100FC0000701418383C73182BE861377F70F93876A
:100FD0000182B6972380E70083C73182850713F724
:100FE000F70FA381E18203C731828547631AF700B7
:100FF00003C701829307500A6304F700A3810182AB
:1010000003C731828D476317F700A381018205472B
:101010002382E1820100324441018280411122C6D3
:101020000008B70702409387470409671307874BF7
:10103000D8C3B7070240938747049843B7070240D5
:10104000938747041367170098C3B7370140938706
:1010500007C083D7C70093960701C182B737014005
:10106000938707C01167558F420741832396E70096
:101070000100324441018280411122C60008054727
:10108000A382E182B7070240938747049443B707DE
:1010900002409387470441677917758F98C3B73724
:1010A0000140938707C083D7C70093960701C18289
:1010B000B7370140938707C071777D17758F420757
:1010C00041832396E70001003244410182804111AF
:1010D00022C600088D67938707A8DC4383D74700A3
:1010E00013970701418383C7B182BE861377F70F39
:1010F00093878182B6972380E70083C7B1828507F3
:1011000013F7F70FA385E18203C7B1828547631AFE
:10111000F70003C781829307500A6304F700A38591
:10112000018203C7B1828D476317F700A38501824F
:1011300005472386E182010032444101828041114A
:1011400022C60008B70702409387470405671307C4
:101150000796D8C3B7070240938747049843B70759
:101160000240938747041367170098C3B7370140BD
:10117000938707C083D7C70093960701C182B7370B
:101180000140938707C01167558F4207418323961B
:10119000E7000100324441018280411122C600086B
:1011A0000547A386E182B70702409387470494432B
:1011B000B70702409387470441677917758F98C333
:1011C000B7370140938707C083D7C70093960701BD
:1011D000C182B7370140938707C071777D17758F3C
:1011E000420741832396E700010032444101828097
:1011F000411122C600088D67938707A89C4783D7B3
:101200004700C207C18313F7F70F2387E18201006C
:10121000324441018280411106C622C40008B7173A
:10122000014013850780EFF0EF8AB717014013855F
:1012300007C0EFF02F8A37150140EFF0AF89B717DD
:10124000014013850740EFF0EF88B7170240DC43F9
:10125000C98313F7F700B7177A009387072033077E
:10126000F702B727F400938707403E9723ACE1824B
:1012700085460146F167938507200145192B01003A
:10128000B240224441018280011122CE0010232667
:1012900004FE232404FEB71702409443B71702400C
:1012A0004167558F98C3B71702409843B7070200AC
:1012B000F98F2324F4FE8327C4FE85072326F4FE3A
:1012C000832784FE99E70327C4FE93070050E31C9D
:1012D000F7FCB71702409843B7070200F98F89C798
:1012E00085472324F4FE19A0232404FE032784FE4B
:1012F00085476317F70CB72702409843B72702408A
:101300001367070198C3B72702409843B7270240E5
:10131000719B98C3B72702409843B72702401367D1
:10132000270098C337170240B71702405843D8C365
:1013300037170240B71702405843D8C33717024047
:10134000B71702405843D8C3B7170240D443B71762
:1013500002403707C1FF7D17758FD8C3B71702400A
:10136000D443B717024037072500558FD8C3B717A6
:1013700002409443B717024037070001558F98C3C6
:101380000100B71702409843B7070002F98FF5DB59
:10139000B7170240D843B7170240719BD8C3B7179D
:1013A0000240D843B717024013672700D8C3010093
:1013B000B7170240DC4313F7C700A147E31AF7FE53
:1013C0000100724405618280411106C622C40008F2
:1013D000B71702409843B71702401367170098C326
:1013E000B7170240D443B71702403707FFF8758F8D
:1013F000D8C3B71702409443B71702403707F7FE28
:101400007D17758F98C3B71702409443B7170240F2
:101410003707FCFF7D17758F98C3B7170240D44379
:10142000B7170240370781FF7D17758FD8C3B717ED
:10143000024037079F0098C7813D0100B240224417
:1014400041018280797106D622D40018232EA4FC93
:10145000232CB4FCB2872328D4FCA30BF4FC8327F1
:10146000C4FD958393F7F70F9D8BA307F4FE8327A5
:10147000C4FD93F7F70FFD8B2307F4FE0327C4FD8C
:1014800093070008630DF7148327C4FD958391E744
:1014900085451145EFF06FCE61A88327C4FD13D7B2
:1014A000570085476317F70085452145EFF0EFCCDE
:1014B00041A08327C4FD13D7570089476317F7005E
:1014C00085454145EFF06FCBA5A08327C4FD13D719
:1014D00057008D476318F700854513050002EFF0AC
:1014E000CFC9B9A08327C4FD13D75700914763180C
:1014F000F700854513050004EFF02FC815A88327D2
:10150000C4FD13D7570095476318F70085451305A9
:101510000008EFF08FC629A88327C4FD13D7570012
:1015200099476317F700854513050010EFF0EFC4E6
:101530008347E4FE0547B317F700C207C1832310B2
:10154000F4FE032784FD85476317F702832704FD14
:10155000C207C183A183C207C18389E78D472322C4
:10156000F4FE11A8832704FDC207C183A183C2072B
:10157000C1832322F4FE832704FDC207C18393F7AE
:10158000F70F2324F4FE0347F4FE8D670A079387C1
:1015900007A7BA979C433E87930704FEBE853A850A
:1015A000EFE03FE2032784FD8547631BF702034713
:1015B000F4FE8D670A07938707A7BA979C43BE86F8
:1015C0008347E4FE0547B317F700C207C18303470B
:1015D00074FD3A86BE853685EFF04F8111A001007B
:1015E000B250225445618280411106C622C40008CF
:1015F000EFE01FB5AA873E85B240224441018280B8
:10160000011106CE22CC0010AA87A307F4FE83475F
:10161000F4FE89E713058008EFE0FFB20100F24015
:10162000624405618280011122CE00102324A4FEB1
:101630002326B4FE37F700E02320070037F700E049
:101640002302070037F700E0A302070037F700E0A6
:101650002303070037F700E0A303070037F700E094
:101660002304070037F700E0A304070037F700E082
:101670002305070037F700E0A305070037F700E070
:10168000854614C3010037F700E011071843BA87F5
:1016900001480327C4FEC286636DD7000327C4FE3A
:1016A000C286E312D7FE032784FEBE866363D7009B
:1016B000D9BF0100724405618280011106CE22CC9F
:1016C00000102326A4FE2324B4FE8327C4FE95E342
:1016D000032784FE8547631EF70093068031014689
:1016E0008545254585339146014681452945993BE8
:1016F00061A80327C4FE89476310F702930680316F
:101700000146854513056002353B914601468145FA
:1017100013057002053B8DA80327C4FEC147631E55
:10172000F70093068031014685450945213B9146E6
:10173000014681450D45393381A80327C4FE93072F
:1017400000026310F70293068031014685451305B8
:10175000A002CD399146014681451305B002DD3125
:1017600025A00327C4FE93072002631FF7009306FA
:101770008031014685451305A004E93191460146B3
:1017800081451305B0047D390100F24062440561D2
:101790008280797106D622D40018232EA4FC232C33
:1017A000B4FC232AC4FC2328D4FC85450545EFF06E
:1017B000CF9C832504FD032544FD0137032744FD09
:1017C0008947631BF700032704FD8D476316F70065
:1017D00085451145EFE01FE5032744FD93072002EF
:1017E000631FF700032704FD930730026319F70016
:1017F0008545B707140013850701EFE0BFE2832793
:10180000C4FD91E785451165EFF02F9735A00327BB
:10181000C4FD85476318F700854537050200EFF0E2
:101820002F9A19A80327C4FD89476317F700854538
:1018300037050400EFF0CF98832784FD2320F4FEC2
:10184000231204FE231304FE231404FE231604FEB5
:10185000B1472315F4FE8D670327C4FD0A0793875C
:1018600007A8BA979C433E87930704FEBE853A8536
:10187000EFF0AFA78D670327C4FD0A07938707A87A
:10188000BA979C4385453E85EFF04FC90100B250A1
:10189000225445618280011106CE22CC001023061D
:1018A00004FEB73702409387674083C70700A3054C
:1018B000F4FE8347B4FE898BE387071AB7370240EB
:1018C0009387774083C7070093F7F70F93F7F703E2
:1018D00013070003E36CF716139727008D679387B0
:1018E00087B1BA979C438287B73702409387674096
:1018F00083C7070093F7F70F93F70704E38A0714EA
:10190000B73702409387874083C7070013F7F70F65
:101910002380E184A30604FE35A003A74181834709
:10192000D4FE3E9783A641818347D4FE9387070464
:10193000B697034707002380E7008347D4FE850757
:10194000A306F4FE83C7018493F7F70F0347D4FE81
:10195000E365F7FCB73702409387874303C70184E9
:101960001377F70F2380E700B73702409387A74329
:1019700083C7070013F7F70FB73702409387A743D2
:10198000719B1377F70F2380E700B73702409387E7
:10199000674009472380E7006F00900BB73702408C
:1019A0009387A74383C7070093F7F70FE207E18701
:1019B000F19BE207E18793E727001397870161878F
:1019C000B73702409387A7431377F70F2380E700C9
:1019D000B73702409387674009472380E7006F00CD
:1019E0009007B737024093872743130720FC2380D3
:1019F000E700B73702409387874083C70700A307F4
:101A0000F4FE0347F4FEA1476317F75C83A7018147
:101A100003C7670083C77700A207D98F1397070111
:101A20004183239FE18283A7018103C71700A38E0F
:101A3000E18283A7018183C707002307F4FEA30780
:101A400004FE230604FE83A7018183C7070093F7E2
:101A50000706ADCF83C7D18313071002638BE7005E
:101A600013072002638DE75613070002638BE756C6
:101A700091A8370700201307470123A2E1849D475F
:101A8000A307F4FE83D7E18393960701C182214720
:101A90006373D700A147C207C183A307F4FE03A75E
:101AA000018183A741848346F4FE3686BE853A854C
:101AB000EF00105C03A741848347F4FE3E9723A206
:101AC000E1841DABFD572306F4FE3DA383C7D183FC
:101AD0002947636DF74E139727008D679387C7BD1E
:101AE000BA979C43828783A7018103C7270083C7D6
:101AF0003700A207D98FC207C183A183C207C18360
:101B000009476381E7020D476388E7020547639849
:101B1000E70A0D67130707A923A2E184C947A307B2
:101B2000F4FE55A00D67130747AA23A2E18493078B
:101B30003004A307F4FE41A883A7018103C727004F
:101B400083C73700A207D98FC207C18393F7F70F66
:101B50000547638EE70005476344F7009DCB99A8CE
:101B60000947638FE7000D47638DE702A1A00D676A
:101B70001307C7AF23A2E184B947A307F4FE3DA82A
:101B80000D671307C7B023A2E184B147A307F4FE92
:101B900035A01387C18023A2E1849147A307F4FEF7
:101BA00031A80D67130787AE23A2E184D147A307AD
:101BB000F4FE29A0FD572306F4FE010029A0FD57DD
:101BC0002306F4FE01008347F4FE139707014183C7
:101BD00083D7E1836379F7008347F4FE1397070106
:101BE0004183239FE18283D7E18393960701C182DA
:101BF000130700046374D70093070004C207C1836E
:101C0000A307F4FE03A7018183A741848346F4FE62
:101C10003686BE853A85EF00B04503A741848347E9
:101C2000F4FE3E9723A2E184C1AE83A7018103C7DE
:101C3000270083C73700A207D98FC207C18393F754
:101C4000F70F139707014183239FE18275A683A7AE
:101C5000018103C7C1832380E70003D7E183854760
:101C600063F3E7380547239FE182B5AE83A701817F
:101C700003C7270083C73700A207D98FC207C183D4
:101C800013F7F70F238EE18285AE83A7018183C707
:101C90000700FD8B8DEF83A7018103C7270083C752
:101CA0003700A207D98F1397070141838547631C2B
:101CB000F7009307000A93F7070263980732FD576E
:101CC0002306F4FE1DA6FD572306F4FE39AE83A7B6
:101CD000018183C7070013F7F70189476313F710E2
:101CE00083A7018103C7470083C75700A207D98F85
:101CF000C207C18393F7F70F0947638DE7040947CC
:101D00006346F70005476386E70AF9A01307100842
:101D10006385E706130720086390E70CB737024096
:101D20009387A74383C7070093F7F70FE207E1877D
:101D300093F7C7FBE207E18793E727001397870133
:101D40006187B73702409387A7431377F70F238044
:101D5000E70061A8B73702409387A74383C707000E
:101D600013F7F70FB73702409387A7431377370767
:101D70001377F70F2380E7008DA8B73702409387CA
:101D8000674383C7070093F7F70FE207E18793F7ED
:101D9000C7FBE207E18793E7270013978701618775
:101DA000B7370240938767431377F70F2380E70025
:101DB0002DA8B73702409387674383C7070013F7FF
:101DC000F70FB737024093876743137737071377C7
:101DD000F70F2380E70011A8FD572306F4FE01004A
:101DE00029A0FD572306F4FE09A401A483A70181BD
:101DF00083C70700FD8B8DEF83A7018103C72700F1
:101E000083C73700A207D98F1397070141838547FE
:101E1000631CF7009307000A93F707026399071CF6
:101E2000FD572306F4FEE1A2FD572306F4FEC1A2EE
:101E300083A7018183C7070013F7F701894763135D
:101E4000F71483A7018103C7270083C73700A207C0
:101E5000D98FC207C1836393071283A7018103C788
:101E6000470083C75700A207D98FC207C18309471C
:101E7000638DE70409476346F7000547638FE70A68
:101E8000CDA813071008638EE70613072008639296
:101E9000E70EB73702409387A74383C7070093F73E
:101EA000F70FE207E18793F7C707E207E18793E7B8
:101EB0003700139787016187B73702409387A7439D
:101EC0001377F70F2380E700D1A0B737024093873D
:101ED000A74383C7070093F7F70FE207E18793F75C
:101EE0003707E207E18793E7C70013978701618708
:101EF000B73702409387A7431377F70F2380E70094
:101F000071A0B73702409387674383C7070093F7F1
:101F1000F70FE207E18793F7C707E207E18793E747
:101F20003700139787016187B7370240938767436C
:101F30001377F70F2380E70091A8B7370240938704
:101F4000674383C7070093F7F70FE207E18793F72B
:101F50003707E207E18793E7C70013978701618797
:101F6000B7370240938767431377F70F2380E70063
:101F700031A8FD572306F4FE010009A8FD572306EA
:101F8000F4FEB5A0FD572306F4FE95A08DA083A70F
:101F900001812380070003D7E183854763FBE704C2
:101FA0000547239FE182B1A083A701812380070019
:101FB00083A7018185072380070003D7E183894731
:101FC00063FBE7020947239FE18235A0FD57230603
:101FD000F4FE010015A0FD572306F4FE31A8010010
:101FE00021A8010011A8010001A8010031A00100F1
:101FF00021A0010011A001000347C4FE9307F00FC8
:10200000631BF700B7370240938727431307F0FCA1
:102010002380E70089A48307E4FE63DF070283D7F8
:10202000E18393960701C182130700046374D7000C
:1020300093070004C207C183A307F4FE03D7E1831B
:102040008347F4FEC207C183B307F7401397070124
:102050004183239FE18219A0A30704FEB737024002
:10206000938707430347F4FE2380E700B737024016
:1020700093872743130700FC2380E700E9AA83C75F
:10208000D1831547638EE70819476392E70E83D71C
:10209000E18393960701C182130700046374D7009C
:1020A00093070004C207C183A307F4FE03A70181BD
:1020B00083A741848346F4FE3686BE853A85EF00C9
:1020C000207B03D7E1838347F4FEC207C183B307B4
:1020D000F740139707014183239FE18203A74184BF
:1020E0008347F4FE3E9723A2E184B73702409387EB
:1020F00007430347F4FE2380E700B7370240938786
:10210000274383C7070013F7F70FB73702409387BA
:102110002743134707041377F70F2380E700B5A081
:10212000B73702409387374083C7070093F7F70F0D
:10213000E207E18793F707F813978701618783D751
:10214000E183E207E187D98F139787016187B7376A
:102150000240938737401377F70F2380E700B737A4
:1021600002409387274309472380E70039A8B73700
:1021700002409387074323800700B73702409387C5
:10218000274309472380E7000100F1A003C7D1835B
:10219000930700026312F704B73702409387674042
:1021A00083C7070093F7F70F93F70704C5C7B7373F
:1021B00002409387074323800700B7370240138705
:1021C0002743B73702409387274303470700137716
:1021D000F70F2380E700BDA8B73702409387074376
:1021E00023800700B73702409387274383C7070040
:1021F00013F7F70FB737024093872743136727007A
:102200001377F70F2380E700B1A0B7370240938719
:10221000474323800700B73702409387674383C74C
:10222000070093F7F70FE207E187F19BE207E187E9
:1022300093E72700139787016187B7370240938799
:1022400067431377F70F2380E70031A0010021A037
:10225000010011A00100B73702409387674009478A
:102260002380E70069A88347B4FE858BB9CFB737D1
:1022700002409387374023800700B7370240938797
:10228000274309472380E700B73702409387674316
:1022900049472380E700B73702409387A743494760
:1022A0002380E700B73702409387674083C7070062
:1022B00013F7F70FB737024093876740136717008C
:1022C0001377F70F2380E7001DA88347B4FE918B97
:1022D00099CFB73702409387574083C70700B73776
:1022E00002409387674011472380E70009A8B7376A
:1022F0000240938767400347B4FE2380E700010054
:10230000F240624405618280411122C60008EFF06C
:102310008FD801003244410173002030411122C6A0
:1023200000080545EFD0BFF32A8785476315F700FE
:102330000545EFD03FF801003244410173002030E1
:10234000411122C600080945EFD07FF12A87854751
:102350006314F70203A701838D476315F700EFE0CD
:102360001FDE01A803A7018389476314F700EFE08C
:10237000FFCA0945EFD01FF4010032444101730048
:102380002030411122C600081145EFD05FED2A87A9
:1023900085476315F7001145EFD0DFF101003244A6
:1023A000410173002030411122C600082145EFD0C1
:1023B0001FEB2A8785476315F7002145EFD09FEF74
:1023C00001003244410173002030411122C600084F
:1023D0004145EFD0DFE82A8785476315F70041457F
:1023E000EFD05FED01003244410173002030411114
:1023F00022C6000813050002EFD07FE62A87854732
:102400006317F70013050002EFD0DFEAA5A013055C
:102410000004EFD0DFE42A8785476317F700130530
:102420000004EFD03FE9B9A013050008EFD03FE367
:102430002A8785476317F70013050008EFD09FE749
:1024400015A813050010EFD09FE12A878547631771
:10245000F70013050010EFD0FFE529A813050020B1
:10246000EFD0FFDF2A8785476316F70013050020AA
:10247000EFD05FE40100324441017300203041118C
:1024800022C6000813050040EFD07FDD2A8785476C
:102490006317F70013050040EFD0DFE19DA88567C3
:1024A00013850780EFD0BFDB2A8785476318F700C5
:1024B000856713850780EFD0FFDFA1A80565EFD002
:1024C0001FDA2A8785476316F7000565EFD09FDE80
:1024D00089A00965EFD0BFD82A8785476316F70022
:1024E0000965EFD03FDD35A01165EFD05FD72A87B2
:1024F00085476316F7001165EFD0DFDB19A821656A
:10250000EFD0FFD52A8785476315F7002165EFD007
:102510007FDA01003244410173002030411122C6AC
:10252000000801003244410173002030411122C6ED
:10253000000893050008B7370140138507C0EFE096
:10254000EFD0AA8789CB93050008B73701401385E0
:1025500007C0EFE0AFD601003244410173002030E4
:10256000411122C600088545B7370140138507C0D1
:10257000EFE0CFCDAA8781CB8545B73701401385E2
:1025800007C0EFE0AFD301003244410173002030B7
:10259000411122C6000893050004B7370140138596
:1025A00007C0EFE0AFCAAA8789CB93050004B7370D
:1025B0000140138507C0EFE06FD093050002B737E5
:1025C0000140138507C0EFE06FC8AA8789CB930548
:1025D0000002B7370140138507C0EFE02FCE01009E
:1025E0003244410173002030411122C60008894560
:1025F000B7370140138507C0EFE04FC5AA8781CBED
:102600008945B7370140138507C0EFE02FCB9145CF
:10261000B7370140138507C0EFE04FC3AA8781CBCE
:102620009145B7370140138507C0EFE02FC9A14599
:10263000B7370140138507C0EFE04FC1AA8781CBB0
:10264000A145B7370140138507C0EFE02FC7C1454B
:10265000B7370140138507C0EFE04FBFAA8781CB92
:10266000C145B7370140138507C0EFE02FC5010012
:102670003244410173002030411122C600088545D3
:1026800037050040EFE08FBCAA8791C78545370525
:102690000040EFE0AFC2010032444101730020303E
:1026A000411122C600088545B70700401385074041
:1026B000EFE0CFB9AA8781CB8545B70700401385E6
:1026C0000740EFE0AFBF010032444101730020300A
:1026D000411122C600088545B717004013850780C1
:1026E000EFE0CFB6AA8781CB8545B71700401385A9
:1026F0000780EFE0AFBC010032444101730020309D
:10270000411122C6000893055052B7470140138576
:102710000780EFE0AFE6AA8785CB93055052B74715
:10272000014013850780EFE08FF503A741838547BC
:102730006315F700EFE0DFAB01A803A741838947EA
:102740006314F700EFE08FF8010032444101730099
:102750002030411122C6000893055052B74700406F
:1027600013850740EFE08FE1AA8785CB9305505290
:10277000B747004013850740EFE06FF003A70183E0
:102780008D476315F700EFE09F9401A803A701832D
:1027900089476314F700EFE07F8101003244410173
:1027A00073002030411122C6000893055052B757DC
:1027B000004013850780EFE06FDCAA8789CB930583
:1027C0005052B757004013850780EFE04FEB0100F0
:1027D0003244410173002030411122C600080965CE
:1027E000EFD0BF9E2A8785476314F7020965EFD0B3
:1027F0009FA303A701838D476315F700EFE0FF99BF
:1028000001A803A7018389476314F700EFE0DF867F
:1028100001003244410173002030411122C60008FA
:1028200001003244410173002030411122C60008EA
:1028300001A0411106C622C44AC24EC00008EFE002
:10284000BFDAEFE05F9D0145EFE09FDB03A78183E7
:102850008967938707F43357F7029307401FB3073D
:10286000F7023E8981494A85CE85EFE0DFDBF9BF7B
:10287000B3C7A5008D8B3307C50081E78D4763EE95
:10288000C700AA876370E50A83C60500850785052A
:10289000A38FD7FEE3EAE7FE828093763500AA870E
:1028A00091CA83C6050085078505A38FD7FE93F6D9
:1028B0003700FDB79376C7FF138606FE63F0C706A1
:1028C00083A3050083A2450083AF850003AFC50045
:1028D00083AE050103AE450103A3850183A8C501AD
:1028E0009385450223A0770003A8C5FF23A25700C4
:1028F00023A4F70123A6E70123A8D70123AAC70130
:1029000023AC670023AE17019387470223AE07FF6E
:1029100075B790419107910523AEC7FEE3EBD7FE53
:10292000E3E4E7F6828005C67D160147B307E500BC
:10293000B386E50083C7070083C606006396D70009
:102940006304C7000507FDF33385D7408280014546
:10295000828000004F4B0D0A000000000D0A0000AD
:1029600041542B003D00000041542E2E2E0000004B
:1029700041542B455849540041542B52455345541A
:102980000000000041542B4D41433F0054504C0087
:10299000424C454D4F44450041542B424C45535405
:1029A000413F00004E414D4500000000504E414D5A
:1029B000450000004F464600504153454E00000080
:1029C0004F4E00005041535300000000434F4E4E05
:1029D00000000000434F4E41444400004F4E2C3055
:1029E0000000000052535349000000003000000076
:1029F000453A2F70726F6A2F72697363762F536531
:102A0000656B667265655F434833325631303352C9
:102A10003854365F4F70656E736F757263655F4CC7
:102A20006962726172792F4C696272617269657351
:102A30002F7365656B667265655F70657269706836
:102A40006572616C2F5345454B465245455F424C7C
:102A50005545544F4F54485F4348393134312E6304
:102A600000000000626C6500303030303030000013
:102A700000080140000C014000100140001401401A
:102A8000003801400044004000480040004C004035
:102A90001201100102000040861A225700010102B3
:102AA0000301000009024300020100A032090400F2
:102AB00000010202010005240010010524010000AC
:102AC000042402020524060001070581034000FFDB
:102AD00009040100020A000000070502024000008C
:102AE000070582024000000014033200300031006C
:102AF00037002D0032002D00320035000E03770024
:102B0000630068002E0063006E0000000C034300A9
:102B100048003100300078008C2100004C22000079
:102B2000E81800004C2200004C2200004C2200005B
:102B30004C2200004C2200004C2200004C220000DD
:102B40004C2200004C2200004C2200004C220000CD
:102B50004C2200004C2200004C2200004C220000BD
:102B60004C2200004C2200004C2200004C220000AD
:102B70004C2200004C2200004C2200004C2200009D
:102B80004C2200004C2200004C2200004C2200008D
:102B90004C2200004C2200007E2000000A2200008F
:102BA0009C1900004C2200004C2200004C22000026
:102BB0004C2200004C2200004C2200004C2200005D
:102BC0004C2200004C2200004C2200004C2200004D
:102BD0004C2200004C220000E2190000A81F000057
:102BE0008A1C0000CC1F0000EC1D0000CC1F000060
:102BF0002A1C0000E61A0000CC1F00004E1C00003A
:082C00006C1C00008E1F000097
:102C0800000000000102030401020304060708098A
:102C18000204060800E1000000000800040309049B
:00000001FF
