:100000006F00401F130000001300000013000000E9
:100010001300000013000000130000001300000094
:100020001300000013000000130000001300000084
:08003000130000007300100032
:100038006FF09FFC000000006F50004C6F50C04CE8
:1000480000000000000000000000000000000000A8
:100058000000000000000000000000000000000098
:100068006FF09FF9000000006FF01FF9000000001A
:100078006FF09FF86FF05FF86FF01FF86FF0DFF721
:100088006FF09FF76FF05FF76F4030776F40307910
:100098006F40107D6F40107F6F5000016FF0DFF5EB
:1000A8006FF09FF56FF05FF56F50E0406FF0DFF491
:1000B8006FF09FF46FF05FF46F50201400000000A1
:1000C8000000000000000000000000006F50000069
:1000D8006F50A0136F50A0166F5060196F50A01E7C
:1000E8006F5060276F50A0296F50602C6FF0DFF0C1
:1000F8006FF09FF06FF05FF06FF01FF06FF0DFEFC1
:100108006FF09FEF6F50A02D6F5080326F506037A7
:100118006F50C0046FF05FEE6FF01FEE6F40B06C71
:1001280000000000000000000000000000000000C7
:080138000000000000000000BF
:100140007375043082807310053082803D432A87A6
:100150006373C3029377F700BDEFADE5937606FFB7
:100160003D8ABA960CC34CC30CC74CC74107E36B1E
:10017000D7FE11E28280B306C3408A0697020000D0
:1001800096966780A6002307B700A306B70023064C
:10019000B700A305B7002305B700A304B7002304E5
:1001A000B700A303B7002303B700A302B7002302DD
:1001B000B700A301B7002301B700A300B7002300D5
:1001C000B700828093F5F50F93968500D58D9396B1
:1001D0000501D58D61B7939627009702000096968A
:1001E0008682E78086FA9680C1171D8F3E96E3745B
:1001F000C3F8A5B7970100209381C167175100206C
:10020000130141E0178500001305C5AF97050020D5
:10021000938545DF1386018263FAC50083220500BA
:1002200023A0550011059105E3EAC5FE138501825F
:100230009385C1896377B500232005001105E36D1F
:10024000B5FEB72200009382828873A00230970225
:1002500000009382A2DE93E2120073905230EF20EE
:100260003039975200009382622B739012347300DE
:100270002030011106CE22CC00102326A4FE032735
:10028000C4FEB727014093870740631CF7008545EC
:1002900013050020EF00704B814513050020EF008F
:1002A000D04A0100F240624405618280797122D611
:1002B0000018232EA4FC232CB4FC232604FEA30543
:1002C00004FE8327C4FDDC432326F4FE0327C4FE7B
:1002D000B707F1FF9387F7EFF98F2326F4FE832703
:1002E00084FD9843832784FDDC43A207D98F03272D
:1002F000C4FED98F2326F4FE8327C4FD0327C4FE42
:10030000D8C38327C4FD9C472326F4FE0327C4FEDD
:10031000B7F7F1FF9387D77FF98F2326F4FE832762
:1003200084FD984B832784FDDC475D8F832784FD04
:100330009C478607D98F0327C4FED98F2326F4FE56
:100340008327C4FD0327C4FE98C78327C4FDDC5759
:100350002326F4FE0327C4FEB70710FFFD17F98F0D
:100360002326F4FE832784FD83C74701FD1713F777
:10037000F70F8347B4FED98FA305F4FE8347B4FE7D
:10038000D2070327C4FED98F2326F4FE8327C4FD9A
:100390000327C4FED8D70100325445618280011181
:1003A00022CE00102326A4FE2324B4FE832784FE3D
:1003B00091CB8327C4FE9C4713E717008327C4FE15
:1003C00098C709A88327C4FE9C4713F7E7FF832734
:1003D000C4FE98C70100724405618280011122CEDB
:1003E00000102326A4FE8327C4FE9C4713E7870042
:1003F0008327C4FE98C70100724405618280797129
:1004000022D60018232EA4FC232604FE8327C4FD35
:100410009C47A18B89C785472326F4FE19A0232674
:1004200004FE8327C4FE3E8532544561828001115B
:1004300022CE00102326A4FE8327C4FE9C4713E788
:1004400047008327C4FE98C701007244056182807B
:10045000797122D60018232EA4FC232604FE8327BC
:10046000C4FD9C47918B89C785472326F4FE19A0BC
:10047000232604FE8327C4FE3E85325445618280D4
:10048000797122D60018232EA4FCAE873687A30DDF
:10049000F4FCB287230DF4FCBA87A30CF4FC2326EA
:1004A00004FE232404FE0347B4FDA54763F6E706D4
:1004B0008327C4FDDC472326F4FE8347B4FD13875E
:1004C00067FFBA878607BA971D47B317F70023243B
:1004D000F4FE832784FE93C7F7FF0327C4FEF98F3A
:1004E0002326F4FE834694FD8347B4FD138767FFFC
:1004F000BA878607BA97B397F6002324F4FE03273A
:10050000C4FE832784FED98F2326F4FE8327C4FDEF
:100510000327C4FED8C785A08327C4FD9C4B232690
:10052000F4FE0347B4FDBA878607BA971D47B31791
:10053000F7002324F4FE832784FE93C7F7FF0327E5
:10054000C4FEF98F2326F4FE834694FD0347B4FDD1
:10055000BA878607BA97B397F6002324F4FE0327D9
:10056000C4FE832784FED98F2326F4FE8327C4FD8F
:100570000327C4FE98CB0347A4FD994763E6E7062B
:100580008327C4FDDC5B2326F4FE8347A4FD138789
:10059000F7FFBA878A07BA977D47B317F700232476
:1005A000F4FE832784FE93C7F7FF0327C4FEF98F69
:1005B0002326F4FE8346B4FD8347A4FD1387F7FF8B
:1005C000BA878A07BA97B397F6002324F4FE032765
:1005D000C4FE832784FED98F2326F4FE8327C4FD1F
:1005E0000327C4FED8DBE9A80347A4FDB14763E6AF
:1005F000E7068327C4FD9C5B2326F4FE8347A4FD06
:10060000138797FFBA878A07BA977D47B317F70012
:100610002324F4FE832784FE93C7F7FF0327C4FE39
:10062000F98F2326F4FE8346B4FD8347A4FD138788
:1006300097FFBA878A07BA97B397F6002324F4FE88
:100640000327C4FE832784FED98F2326F4FE832745
:10065000C4FD0327C4FE98DBA5A08327C4FDDC5797
:100660002326F4FE8347A4FD138737FFBA878A0742
:10067000BA977D47B317F7002324F4FE832784FE3F
:1006800093C7F7FF0327C4FEF98F2326F4FE8346A2
:10069000B4FD8347A4FD138737FFBA878A07BA974B
:1006A000B397F6002324F4FE0327C4FE832784FEB9
:1006B000D98F2326F4FE8327C4FD0327C4FED8D791
:1006C0000100325445618280797122D60018232EB0
:1006D000A4FC232604FE232404FE0327C4FDB7073D
:1006E0000010F98F89CBB7070240938707409C43DE
:1006F0002324F4FE31A0B70702409C432324F4FED8
:10070000032784FE8327C4FDF98F89C785472326E5
:10071000F4FE19A0232604FE8327C4FE3E8532542E
:1007200045618280011122CE00102326A4FE0327FA
:10073000C4FEB7070010F98F89CBB7070240938733
:1007400007400327C4FED8C331A0B70702400327E0
:10075000C4FED8C30100724405618280797122D63B
:100760000018232EA4FC232604FE232404FEB7072E
:100770000140938707409C430327C4FDF98F23243E
:10078000F4FEB707014093870740D84B8327C4FD89
:10079000F98F81CB832784FE89C785472326F4FE02
:1007A00019A0232604FE8327C4FE3E8532544561EA
:1007B0008280011122CE00102326A4FEB70701403B
:1007C000938707400327C4FED8CB0100724405611C
:1007D0008280011106CE22CC00102326A4FE03271E
:1007E000C4FEB7170140938707806319F70085455A
:1007F0001145A12F81451145892F75A80327C4FEF6
:10080000B7170140938707C06319F7008545214555
:100810002D2F81452145152F79A80327C4FEB71731
:1008200001406319F700854541450527814541454C
:10083000292F51A00327C4FEB71701409387074013
:10084000631BF70085451305000201278145130549
:100850000002E52D8DA00327C4FEB7270140938732
:100860000780631BF700854513050004F92D8145BA
:1008700013050004D92D81A00327C4FEB72701402A
:10088000938707C0631BF700854513050008752D86
:10089000814513050008552D39A80327C4FEB72745
:1008A0000140631AF700854513050010792D814535
:1008B00013050010592D0100F24062440561828049
:1008C000397122DE80002326A4FC2324B4FC2326D5
:1008D00004FE232004FE232404FE232E04FC2322F2
:1008E00004FE232C04FC832784FC9C47BD8B232619
:1008F000F4FE832784FC9C47C18B89CB832784FC2F
:10090000DC430327C4FED98F2326F4FE832784FC0F
:1009100083D7070093F7F70FF1CF8327C4FC9C43DD
:100920002322F4FE232404FE65A8832784FE0547C2
:10093000B317F700232EF4FC832784FC83D707002A
:100940003E878327C4FDF98F2320F4FE032704FE8E
:100950008327C4FD6311F708832784FE8A07232EAB
:10096000F4FC8327C4FD3D47B317F700232CF4FCA8
:10097000832784FD93C7F7FF032744FEF98F2322C3
:10098000F4FE8327C4FD0327C4FEB317F700032733
:1009900044FED98F2322F4FE832784FC98479307D3
:1009A0008002631BF700832784FE05473317F70097
:1009B0008327C4FCD8CB05A0832784FC98479307E2
:1009C0008004631AF700832784FE05473317F70076
:1009D0008327C4FC98CB832784FE85072324F4FE59
:1009E000032784FE9D47E3F2E7F48327C4FC032733
:1009F00044FE98C3832784FC03D707009307F00FB6
:100A000063F1E70E8327C4FCDC432322F4FE232496
:100A100004FE75A8832784FEA1070547B317F700D6
:100A2000232EF4FC832784FC83D707003E8783278B
:100A3000C4FDF98F2320F4FE032704FE8327C4FDA1
:100A40006312F708832784FE8A07232EF4FC83278A
:100A5000C4FD3D47B317F700232CF4FC832784FD26
:100A600093C7F7FF032744FEF98F2322F4FE832761
:100A7000C4FD0327C4FEB317F700032744FED98F34
:100A80002322F4FE832784FC984793078002631B8C
:100A9000F700832784FEA10705473317F700832754
:100AA000C4FCD8CB832784FC984793078004631B3E
:100AB000F700832784FEA10705473317F700832734
:100AC000C4FC98CB832784FE85072324F4FE0327E8
:100AD00084FE9D47E3F0E7F48327C4FC032744FE2C
:100AE000D8C30100725421618280011122CE00100E
:100AF0002326A4FEAE872322C4FE2315F4FE8327FB
:100B000044FE99C70357A4FE8327C4FE98CB31A0A7
:100B10000357A4FE8327C4FED8CB010072440561AD
:100B20008280797122D60018232EA4FC232CB4FCD9
:100B3000232404FE232204FE232604FE232004FE95
:100B40008327C4FD63D80700B7070140DC4F232685
:100B5000F4FE31A0B7070140DC432326F4FE8327CF
:100B6000C4FDC183BD8B2320F4FE0327C4FDC167F0
:100B7000FD17F98F2324F4FE0327C4FDB7073000C7
:100B80007D8FB70730006315F7020327C4FEB70750
:100B900000F1FD17F98F2326F4FEB7070140D44377
:100BA000B7070140370700F17D17758FD8C3ADA097
:100BB0000327C4FDB7071000F98F8DCB832704FEF0
:100BC0000D47B317F7002322F4FE832744FE93C793
:100BD000F7FF0327C4FEF98F2326F4FE0327C4FE84
:100BE000B707000FD98F2326F4FE3DA08327C4FD4D
:100BF000D5839207032784FEB317F70093C7F7FF47
:100C00000327C4FEF98F2326F4FE0327C4FEB7078B
:100C1000000FD98F2326F4FE832784FD91CF8327ED
:100C2000C4FDD5839207032784FEB317F70003277B
:100C3000C4FED98F2326F4FE8327C4FD63D80700A2
:100C4000B70701400327C4FED8CF31A0B707014042
:100C50000327C4FED8C301003254456182807971F4
:100C600022D60018232EA4FC232604FEB717024028
:100C7000DC432326F4FE0327C4FED177FD17F98F4A
:100C80002326F4FE0327C4FE8327C4FDD98F232621
:100C9000F4FEB71702400327C4FED8C30100325444
:100CA00045618280797122D60018232EA4FC232668
:100CB00004FE232404FE232204FE232004FEB7178F
:100CC0000240DC43B18B2326F4FE0327C4FE914788
:100CD0006302F7020327C4FEA1476305F7028327D7
:100CE000C4FEC5E78327C4FD37177A001307072022
:100CF00098C365A08327C4FD37177A001307072020
:100D000098C361A8B7170240D843B7073C00F98FD2
:100D10002324F4FEB7170240D843C167F98F23227A
:100D2000F4FE832784FEC98389072324F4FE8327E6
:100D300044FE89EF032784FEB7173D009387079091
:100D40003307F7028327C4FD98C381A8B717024071
:100D5000D843B7070200F98F89CF032784FEB7175E
:100D60003D00938707903307F7028327C4FD98C39C
:100D70002DA0032784FEB7177A0093870720330737
:100D8000F7028327C4FD98C309A88327C4FD37173A
:100D90007A001307072098C30100B7170240DC430D
:100DA00093F7070F2326F4FE8327C4FE918323269F
:100DB000F4FEB7070020138707008327C4FEBA9705
:100DC00083C7070093F7F70F2320F4FE8327C4FDA2
:100DD0009843832704FE3357F7008327C4FDD8C305
:100DE000B7170240DC4393F707702326F4FE8327EE
:100DF000C4FEA1832326F4FEB70700201387070053
:100E00008327C4FEBA9783C7070093F7F70F232001
:100E1000F4FE8327C4FDD843832704FE3357F7002D
:100E20008327C4FD98C7B7170240D84391679387BB
:100E30000780F98F2326F4FE8327C4FEAD83232683
:100E4000F4FEB7070020138707008327C4FEBA9774
:100E500083C7070093F7F70F2320F4FE8327C4FD11
:100E6000D843832704FE3357F7008327C4FDD8C730
:100E7000B7170240D843B167F98F2326F4FE8327C2
:100E8000C4FEB9832326F4FEB707002013870707A3
:100E90008327C4FEBA9783C7070093F7F70F232071
:100EA000F4FE8327C4FDD847832704FE3357F70297
:100EB0008327C4FD98CB0100325445618280011123
:100EC00022CE00102326A4FE2324B4FE832784FE12
:100ED00099CBB7170240944FB71702400327C4FEBF
:100EE000558F98CF21A8B7170240944F8327C4FE8F
:100EF00013C7F7FFB7170240758F98CF01007244F0
:100F000005618280011122CE00102326A4FE232435
:100F1000B4FE832784FE99CBB7170240D44FB7178E
:100F200002400327C4FE558FD8CF21A8B71702402F
:100F3000D44F8327C4FE13C7F7FFB7170240758F3E
:100F4000D8CF0100724405618280011122CE0010C9
:100F50002326A4FE2324B4FE832784FE99CBB7174F
:100F60000240D447B71702400327C4FE558FD8C7A5
:100F700021A8B7170240D4478327C4FE13C7F7FF41
:100F8000B7170240758FD8C701007244056182808F
:100F9000797122D60018232EA4FC232CB4FC23172D
:100FA00004FE8327C4FD83D707002317F4FE0357ED
:100FB000E4FE8D6793870704F98F2317F4FE8327D8
:100FC00084FD03D70700832784FD83D72700D98FAB
:100FD000139707014183832784FD83D74700D98F67
:100FE000139707014183832784FD83D76700D98F37
:100FF000139707014183832784FD83D78700D98F07
:10100000139707014183832784FD83D7A700D98FD6
:10101000139707014183832784FD83D7C700D98FA6
:10102000139707014183832784FD83D7E700D98F76
:101030001397070141838357E4FED98F2317F4FEEA
:101040008327C4FD0357E4FE2390E7008327C4FDF4
:1010500083D7C701139707014183FD779387F77FF4
:10106000F98F1397070141838327C4FD239EE7006F
:10107000832784FD03D707018327C4FD2398E70056
:101080000100325445618280011122CE00102326D6
:10109000A4FE2324B4FE832784FE8DC38327C4FECD
:1010A00083D70700C207C18393E70704139707019B
:1010B00041838327C4FE2390E70005A08327C4FE55
:1010C00083D70700C207C18393F7F7FB1397070184
:1010D00041838327C4FE2390E70001007244056129
:1010E0008280797122D60018232EA4FC232CB4FC14
:1010F000231704FE8327C4FD83D707002317F4FEBC
:101100000327C4FDB7370140938707C06308F70280
:101110000327C4FDB70700406302F7020327C4FD9D
:10112000B707004093870740630AF7000327C4FD11
:10113000B7170040938707806311F7028357E4FED7
:1011400093F7F7F82317F4FE832784FD03D72700CE
:101150008357E4FED98F2317F4FE8357E4FE93F7F9
:10116000F7CF2317F4FE832784FD03D76700835747
:10117000E4FED98F2317F4FE8327C4FD0357E4FE52
:101180002390E700832784FD03D747008327C4FD0E
:101190002396E702832784FD03D707008327C4FD36
:1011A0002394E7020327C4FDB7370140938707C0A4
:1011B000631DF700832784FD83C78700139707010A
:1011C00041838327C4FD2398E7028327C4FD054795
:1011D000239AE7000100325445618280797122D65A
:1011E0000018232EA4FC232CB4FC231504FE231783
:1011F00004FE231604FE8327C4FD83D70702C2071B
:10120000C183F99B1397070141838327C4FD239072
:10121000E7028327C4FD83D707022317F4FE832741
:10122000C4FD83D747002316F4FE8327C4FD83D76C
:1012300087012315F4FE8357A4FE93F7F7F82315CF
:10124000F4FE8357A4FEF19B2315F4FE832784FD4F
:1012500003D707008357A4FED98F2315F4FE8357C5
:10126000E4FEF59B2317F4FE832784FD03D7870054
:101270008357E4FED98F2317F4FE832784FD03D719
:1012800027008357E4FED98F2317F4FE0327C4FDFC
:10129000B7370140938707C0631CF7068357E4FE06
:1012A000DD9B2317F4FE832784FD03D7A700835714
:1012B000E4FED98F2317F4FE8357E4FEED9B23173A
:1012C000F4FE832784FD03D747008357E4FED98FBC
:1012D0002317F4FE8357C4FE93F7F7EF2316F4FEAB
:1012E0008357C4FE93F7F7DF2316F4FE832784FDAC
:1012F00003D7C7008357C4FED98F2316F4FE832774
:1013000084FD03D7E7008357C4FED98F2316F4FE6C
:101310008327C4FD0357C4FE2392E7008327C4FD3F
:101320000357A4FE239CE700832784FD03D76700AF
:101330008327C4FD239AE7028327C4FD0357E4FEF5
:101340002390E7020100325445618280797122D6F0
:101350000018232EA4FC232CB4FC231504FE231711
:1013600004FE231604FE8327C4FD83D70702C207A9
:10137000C183BD9B1397070141838327C4FD23903D
:10138000E7028327C4FD83D707022317F4FE8327D0
:10139000C4FD83D747002316F4FE8327C4FD83D7FB
:1013A00087012315F4FE0357A4FEE577FD17F98F97
:1013B0002315F4FE8357A4FE93F7F7CF2315F4FE0D
:1013C000832784FD83D70700A20713970701418372
:1013D0008357A4FED98F2315F4FE8357E4FE93F7B9
:1013E000F7FD2317F4FE832784FD83D78700920738
:1013F0001397070141838357E4FED98F2317F4FE27
:10140000832784FD83D72700920713970701418321
:101410008357E4FED98F2317F4FE0327C4FDB737A3
:101420000140938707C06310F70A8357E4FE93F7E0
:10143000F7F72317F4FE832784FD83D7A7009207CD
:101440001397070141838357E4FED98F2317F4FED6
:101450008357E4FE93F7F7FB2317F4FE832784FDFD
:1014600083D7470092071397070141838357E4FE10
:10147000D98F2317F4FE8357C4FE93F7F7BF2316C3
:10148000F4FE0357C4FEFD779387F77FF98F231689
:10149000F4FE832784FD83D7C7008A0713970701CB
:1014A00041838357C4FED98F2316F4FE832784FD1E
:1014B00083D7E7008A071397070141838357C4FE48
:1014C000D98F2316F4FE8327C4FD0357C4FE23924D
:1014D000E7008327C4FD0357A4FE239CE70083276E
:1014E00084FD03D767008327C4FD239CE70283277D
:1014F000C4FD0357E4FE2390E70201003254456126
:101500008280797122D60018232EA4FC232CB4FCEF
:10151000231504FE231704FE231604FE8327C4FDAF
:1015200083D70702C207C18393F7F7EF1397070129
:1015300041838327C4FD2390E7028327C4FD83D71B
:1015400007022317F4FE8327C4FD83D74700231621
:10155000F4FE8327C4FD83D7C7012315F4FE835708
:10156000A4FE93F7F7F82315F4FE8357A4FEF19B2E
:101570002315F4FE832784FD03D707008357A4FEB9
:10158000D98F2315F4FE8357E4FE93F7F7DF231773
:10159000F4FE832784FD83D78700A20713970701F2
:1015A00041838357E4FED98F2317F4FE832784FDFC
:1015B00083D72700A2071397070141838357E4FECF
:1015C000D98F2317F4FE0327C4FDB7370140938753
:1015D00007C06312F70A0357E4FEFD779387F77F8E
:1015E000F98F2317F4FE832784FD83D7A700A20772
:1015F0001397070141838357E4FED98F2317F4FE25
:101600008357E4FE93F7F7BF2317F4FE832784FD87
:1016100083D74700A2071397070141838357E4FE4E
:10162000D98F2317F4FE0357C4FEFD77FD17F98FFA
:101630002316F4FE0357C4FEF977FD17F98F23161E
:10164000F4FE832784FD83D7C70092071397070111
:1016500041838357C4FED98F2316F4FE832784FD6C
:1016600083D7E70092071397070141838357C4FE8E
:10167000D98F2316F4FE8327C4FD0357C4FE23929B
:10168000E7008327C4FD0357A4FE239EE7008327BA
:1016900084FD03D767008327C4FD239EE7028327C9
:1016A000C4FD0357E4FE2390E70201003254456174
:1016B0008280797122D60018232EA4FC232CB4FC3E
:1016C000231604FE231504FE231704FE8327C4FDFE
:1016D00083D70702139707014183FD77FD17F98F21
:1016E0001397070141838327C4FD2390E7028327D3
:1016F000C4FD83D707022315F4FE8327C4FD83D7D7
:1017000047002317F4FE8327C4FD83D7C7012316A0
:10171000F4FE0357C4FEE577FD17F98F2316F4FE98
:101720008357C4FE93F7F7CF2316F4FE832784FD77
:1017300083D70700A2071397070141838357C4FE8D
:10174000D98F2316F4FE0357A4FEF977FD17F98FFE
:101750002315F4FE832784FD83D78700B2071397F0
:10176000070141838357A4FED98F2315F4FE8327F5
:1017700084FD83D72700B20713970701418383575E
:10178000A4FED98F2315F4FE0327C4FDB73701400B
:10179000938707C06316F7020357E4FEF177FD173E
:1017A000F98F2317F4FE832784FD83D7C7009A0798
:1017B0001397070141838357E4FED98F2317F4FE63
:1017C0008327C4FD0357E4FE2392E7008327C4FD6B
:1017D0000357C4FE239EE700832784FD03D76700D9
:1017E0008327C4FD2390E7048327C4FD0357A4FE89
:1017F0002390E7020100325445618280011122CE1C
:1018000000102326A4FE8327C4FE7D572392E70001
:101810008327C4FE239007008327C4FE2393070079
:101820008327C4FE239107008327C4FE2384070077
:101830000100724405618280011122CE001023262E
:10184000A4FE2324B4FE832784FE8DC38327C4FE15
:1018500083D70700C207C18393E7170013970701D7
:1018600041838327C4FE2390E70039A88327C4FE61
:1018700083D70700C207C183F99B139707014183F0
:101880008327C4FE2390E700010072440561828033
:10189000011122CE00102326A4FE2324B4FE8327A8
:1018A00084FE95C38327C4FE83D74704139707019B
:1018B0004183E177D98F1397070141838327C4FEC2
:1018C0002392E70415A08327C4FE83D74704139708
:1018D00007014183A167FD17F98F13970701418322
:1018E0008327C4FE2392E7040100724405618280CD
:1018F000797122D60018232EA4FCAE873687231DCB
:10190000F4FCB287231CF4FCBA87231BF4FC2317D6
:1019100004FE231604FE231504FE8327C4FD83D78B
:1019200087002317F4FE8327C4FD83D7870123167E
:10193000F4FE8327C4FD83D707022315F4FE8357E3
:10194000E4FEE19B2317F4FE0357E4FE8357A4FD56
:10195000D98F2317F4FE8357C4FE93F7C7CF2316FE
:10196000F4FE8357C4FE93E717102316F4FE835743
:10197000A4FE93F7D7FD2315F4FE835764FD920769
:10198000139707014183835784FDD98F139707016C
:1019900041838357A4FED98F2315F4FE8327C4FD0A
:1019A0000357E4FE2394E7008327C4FD0357C4FED6
:1019B000239CE7008327C4FD0357A4FE2390E7027E
:1019C0000100325445618280797122D60018232E9D
:1019D000A4FCAE87231DF4FC231704FE8327C4FD5B
:1019E00083D787012317F4FE8357E4FEDD9B23177B
:1019F000F4FE0357E4FE8357A4FDD98F2317F4FEAA
:101A00008327C4FD0357E4FE239CE7000100325402
:101A100045618280797122D60018232EA4FCAE87FE
:101A2000231DF4FC231704FE8327C4FD83D78701FD
:101A30002317F4FE0357E4FEFD779387F77FF98FB2
:101A40002317F4FE8357A4FDA207139707014183D0
:101A50008357E4FED98F2317F4FE8327C4FD035771
:101A6000E4FE239CE70001003254456182807971D5
:101A700022D60018232EA4FCAE87231DF4FC2317C6
:101A800004FE8327C4FD83D7C7012317F4FE8357C1
:101A9000E4FEDD9B2317F4FE0357E4FE8357A4FD09
:101AA000D98F2317F4FE8327C4FD0357E4FE239E3A
:101AB000E7000100325445618280797122D6001816
:101AC000232EA4FCAE87231DF4FC231704FE8327DA
:101AD000C4FD83D7C7012317F4FE0357E4FEFD7747
:101AE0009387F77FF98F2317F4FE8357A4FDA2078E
:101AF0001397070141838357E4FED98F2317F4FE20
:101B00008327C4FD0357E4FE239EE70001003254FF
:101B100045618280797122D60018232EA4FCAE87FD
:101B2000231DF4FC231704FE8327C4FD83D78701FC
:101B30002317F4FE8357E4FEED9B2317F4FE0357AF
:101B4000E4FE8357A4FDD98F2317F4FE8327C4FD39
:101B50000357E4FE239CE700010032544561828074
:101B6000797122D60018232EA4FCAE87231DF4FC25
:101B7000231704FE8327C4FD83D787012317F4FEB0
:101B80008357E4FE93F7F7BF2317F4FE8357A4FDB2
:101B9000A2071397070141838357E4FED98F2317C8
:101BA000F4FE8327C4FD0357E4FE239CE7000100F5
:101BB000325445618280797122D60018232EA4FC0C
:101BC000AE87231DF4FC231704FE8327C4FD83D7AF
:101BD000C7012317F4FE8357E4FEED9B2317F4FEA1
:101BE0000357E4FE8357A4FDD98F2317F4FE832700
:101BF000C4FD0357E4FE239EE70001003254456113
:101C00008280797122D60018232EA4FCAE87231D72
:101C1000F4FC231704FE8327C4FD83D7C7012317D1
:101C2000F4FE8357E4FE93F7F7BF2317F4FE8357C0
:101C3000A4FDA2071397070141838357E4FED98FC0
:101C40002317F4FE8327C4FD0357E4FE239EE70019
:101C50000100325445618280797122D60018232E0A
:101C6000A4FCAE87231DF4FC232604FE231504FEEA
:101C7000231404FE8327C4FD83D7070113970701AC
:101C800041838357A4FDF98F2315F4FE8327C4FDF8
:101C900083D7C7001397070141838357A4FDF98FAA
:101CA0002314F4FE8357A4FE81CB835784FE89C797
:101CB00085472326F4FE19A0232604FE8327C4FEAD
:101CC0003E85325445618280011122CE00102326C8
:101CD000A4FEAE872315F4FE8357A4FE93C7F7FF37
:101CE0001397070141838327C4FE2398E70001006F
:101CF0007244056182805D7186C6A2C48008232E6D
:101D0000A4FA232CB4FA232604FE232404FE23225F
:101D100004FE232004FE232E04FC8327C4FB232E71
:101D2000F4FC8327C4FB83D70701C207C1832326A2
:101D3000F4FE0327C4FEB567FD17F98F2326F4FED2
:101D4000832784FB83D767003E878327C4FED98F10
:101D50002326F4FE8327C4FE1397070141838327BC
:101D6000C4FB2398E7008327C4FB83D7C700C207BF
:101D7000C1832326F4FE0327C4FEBD679387379FE4
:101D8000F98F2326F4FE832784FB03D7470083279C
:101D900084FB83D78700D98F13970701418383275B
:101DA00084FB83D7A700D98FC207C1833E878327CF
:101DB000C4FED98F2326F4FE8327C4FE13970701A0
:101DC00041838327C4FB2396E7008327C4FB83D783
:101DD0004701C207C1832326F4FE0327C4FEC1675F
:101DE0009387F7CFF98F2326F4FE832784FB83D7CD
:101DF000C7003E878327C4FED98F2326F4FE83279E
:101E0000C4FE1397070141838327C4FB239AE7008D
:101E1000930784FC3E85EFE0FFE80327C4FDB74746
:101E20000140938707806317F700832744FD23242D
:101E3000F4FE29A0832704FD2324F4FE8327C4FB9A
:101E400083D7C700C207C183C207C18763D2070215
:101E5000032784FEBA878607BA978E073E978327A3
:101E600084FB9C438607B357F7022322F4FE05A0A8
:101E7000032784FEBA878607BA978E073E97832783
:101E800084FB9C438A07B357F7022322F4FE0327FF
:101E900044FE93074006B357F70292072326F4FE49
:101EA0008327C4FE13D7470093074006B307F70202
:101EB000032744FEB307F7402320F4FE8327C4FB27
:101EC00083D7C700C207C183C207C18763D2070295
:101ED000832704FE8E071387270393074006B35713
:101EE000F7029D8B0327C4FED98F2326F4FE05A09D
:101EF000832704FE92071387270393074006B357EF
:101F0000F702BD8B0327C4FED98F2326F4FE832757
:101F1000C4FE1397070141838327C4FB2394E70082
:101F20000100B640264461618280011122CE00107A
:101F30002326A4FE2324B4FE832784FE95C383278F
:101F4000C4FE83D7C7001397070141838967D98FE0
:101F50001397070141838327C4FE2396E70015A04A
:101F60008327C4FE83D7C700139707014183F977FE
:101F7000FD17F98F1397070141838327C4FE23962A
:101F8000E7000100724405618280011122CE001039
:101F90002326A4FEAE872315F4FE8357A4FE93F7F1
:101FA000F71F1397070141838327C4FE2392E7009D
:101FB0000100724405618280797122D60018232EB7
:101FC000A4FCAE87231DF4FC232604FE8327C4FD56
:101FD00083D707001397070141838357A4FDF98F27
:101FE000C207C18389C785472326F4FE19A023268B
:101FF00004FE8327C4FE3E85325445618280797198
:1020000022D60018232EA4FCAE87231DF4FC232225
:1020100004FE232604FE232004FE232404FE83570B
:10202000A4FD93F7F70F958393F7F70F2320F4FEA2
:102030008357A4FDFD8B2326F4FE8327C4FE0547AA
:10204000B317F7002326F4FE032704FE8547631F1A
:10205000F7008327C4FD83D7C700C207C1833E872B
:102060008327C4FEF98F2326F4FE3DA8032704FE30
:102070008947631FF7008327C4FD83D70701C20781
:10208000C1833E878327C4FEF98F2326F4FE29A847
:102090008327C4FD83D74701C207C1833E878327B7
:1020A000C4FEF98F2326F4FE8357A4FDA183C20743
:1020B000C1832322F4FE832744FE0547B317F700AC
:1020C0002322F4FE8327C4FD83D70700C207C18300
:1020D0003E87832744FEF98F2322F4FE8327C4FE24
:1020E00081CB832744FE89C785472324F4FE19A0AA
:1020F000232404FE832784FE3E853254456182807A
:10210000797122D60018232EA4FCAE87231DF4FC7F
:10211000231704FE231604FE8357A4FDA18323176F
:10212000F4FE8357E4FE0547B317F7002316F4FEC9
:102130008357C4FE93C7F7FF139707014183832793
:10214000C4FD2390E70001003254456182804111B3
:1021500006C622C4000883C7A18213F7F70F85477C
:10216000631EF702A16783A7C7A983D74700139609
:102170000701418283C7B18293F7F70F13871700D6
:102180009376F70FA385D182BE861377F60F9387D8
:102190008187B6972380E700B12081A083C7A18201
:1021A00013F7F70F8947631CF70083C7B18293F7D2
:1021B000F70F850713F7F70FA385E18239A80547C5
:1021C0002384E182A16783A7C7A983D74700C207F9
:1021D000C18313F7F70FA384E1820100B2402244C8
:1021E00041018280411106C622C4000883C7B18222
:1021F00013F7F70F8D4763F7E70283C7B18293F7B1
:10220000F70F1387C7FF93878187BA971146BE855B
:102210009D6713858725EF40E00BAA8781E7054777
:102220002386E1820100B2402244410182800111F3
:1022300006CE22CC0010AA87A307F4FEA1679387DD
:10224000C7A69C473E87A1675CCBA1679387C7A6BB
:102250009C473E8791675CCB9307F4FE8546014619
:10226000BE850145EF10D045A1679387C7A69C475F
:102270003E87A1671CCB0100F24062440561828069
:10228000011106CE22CC0010AA87A307F4FEA16795
:102290009387C7A69C473E87A1675CCBA1679387BE
:1022A000C7A69C473E8791671CCB9307F4FE8546E3
:1022B0000146BE850145EF10B040A1679387C7A6D0
:1022C0009C473E87A1671CCB0100F2406244056138
:1022D0008280797106D622D40018AA87231FF4FCC5
:1022E000A1679387C7A69C473E87A1675CCB8357AE
:1022F000E4FDA183C207C18393F7F70F2306F4FE21
:102300008357E4FD93F7F70FA306F4FEA1679387C5
:10231000C7A69C473E8791671CCB9307C4FE89469E
:102320000146BE850145EF10B039A1679387C7A666
:102330009C473E87A1671CCB0100B25022544561E7
:102340008280797106D622D44AD24ED052CE56CC53
:102350005ACA5EC862C666C400180148814713079E
:10236000F00493063002054681450145EF10D02167
:10237000930600310546854513050008EF00F05A25
:1023800093060031014685451305E004EF00F0593E
:1023900093060031014685451305D004EF00F0583F
:1023A000A1679387C7A69C473E8789675CCB03A735
:1023B00081848967938707F43357F7029307800C6A
:1023C000B307F7023E8C814C6285E685EF10703BC7
:1023D000A1679387C7A69C473E8789671CCB03A745
:1023E00081848967938707F43357F7029307400680
:1023F000B307F7023E8B814B5A85DE85EF107038AC
:10240000130560032D3503A781848967938707F43B
:102410003357F70293074006B307F7023E8A814A13
:102420005285D685EF10F0351305000A913D13054E
:10243000A003F53B1545A9351305200BCD3B3145D0
:1024400081353145353D0145253D130530030D3DB1
:102450001305300335351305700BD13B13055003BD
:1024600005351305B00BE13313057003113D13055A
:10247000000C753B1305C00221351305200C453BAC
:102480000545FD3B1305300C5D334945D53B130530
:10249000400C713B13050002E5331305600C413B12
:1024A0003D45F93B1305000D59331305400AC93B5F
:1024B0001305100AF1331305000E953B1305000DAB
:1024C000C1331145753B3545653B4545553B4D454C
:1024D000453B1305B0026D331305F0035533130567
:1024E0004005793B1305C004613B6145513B3545CF
:1024F000413B2D4571337D4561331305300249332E
:102500001305100E2D331305000D9D3B11458D3B1A
:102510003145BD334545AD334D459D331305C002AF
:1025200085331305F003A93B13054004913B1305C4
:102530001005B9331305F002A1337D4591337D4574
:102540008133130500022D3B13053002153B1305A3
:102550001002F1394545E13903A7818489679387E2
:1025600007F43357F702BA879207998F8E073E898F
:1025700081494A85CE85EF10D02013059002453958
:10258000C1671385F7FF69280100B2502254125920
:102590008259724AE24A524BC24B324CA24C4561BC
:1025A0008280011106CE22CC0010AA87368723171D
:1025B000F4FEAE872316F4FEB2872315F4FEBA8725
:1025C0002314F4FE1305A0029D318357E4FE938784
:1025D0008702C207C1833E85ED398357A4FE9387E6
:1025E0008702C207C1833E85ED311305B0028131F8
:1025F0008357C4FE93874703C207C1833E85D13901
:10260000835784FE93874703C207C1833E85D13138
:102610001305C00229390100F2406244056182803D
:10262000797106D622D40018AA87231FF4FC9306DA
:1026300060081306F00E81450145A537231704FEF7
:1026400005A8231604FE11A88357E4FD3E855131E9
:102650008357C4FE85072316F4FE0357C4FE930771
:102660006008E3F3E7FE8357E4FE85072317F4FED3
:102670000357E4FE9307F00EE3F5E7FC0100B250C8
:10268000225445618280797106D622D40018AA8727
:10269000AE863287231FF4FCB687231EF4FCBA876C
:1026A000A30DF4FCA30704FE75A08347F4FE139763
:1026B000070141838357C4FDBA9793950701C181F0
:1026C0008357E4FD9D071396070141828347F4FE7B
:1026D0001397070141838357C4FDBA9713970701E6
:1026E00041838357E4FDBA863E85653D8307B4FD8B
:1026F000938607FE8347F4FE1D6792061307C747BC
:102700003697BA9783C70700A306F4FE230704FE93
:1027100005A88347D4FE858B91C7C16713850780C1
:102720004D3E29A0C1671385F7FF65368347D4FE68
:102730008583A306F4FE8347E4FE85072307F4FEA2
:102740000347E4FE9D47E3F6E7FC8347F4FE850775
:10275000A307F4FE0347F4FEBD47E3F8E7F40100E6
:10276000B250225445618280797106D622D4001875
:10277000AA872E87232CC4FC231FF4FCBA87231EB0
:10278000F4FC231704FE91A08357E4FE8E071397F1
:10279000070141838357E4FDBA9793960701C182ED
:1027A0008357C4FD920793950701C1818357E4FEC7
:1027B000032784FDBA97838707003E863685E13577
:1027C0008357E4FE85072317F4FE8357E4FE0327AF
:1027D00084FDBA9783870700C5FB0100B2502254DD
:1027E00045618280797106D622D40018AA87AE8608
:1027F0003287231FF4FCB687231EF4FCBA87231DFF
:10280000F4FC8317A4FD63D807028357C4FD920725
:102810001397070141838357E4FD1306D002BA855D
:102820003E8595358357A4FDB307F040C207C183A9
:10283000231DF4FC31A88357C4FD920713970701A9
:1028400041838357E4FD13060002BA853E85253D8A
:102850000317A4FD896793870771B347F702C2077F
:10286000C18793F7F70F2304F4FE0317A4FD930722
:10287000803EB347F702139707014187A947B36723
:10288000F702C207C18793F7F70FA304F4FE0317FB
:10289000A4FD93074006B347F7021397070141874A
:1028A000A947B367F702C207C18793F7F70F23055C
:1028B000F4FE0317A4FDA947B347F70213970701D6
:1028C0004187A947B367F702C207C18793F7F70F9C
:1028D000A305F4FE0317A4FDA947B367F702C207D7
:1028E000C18793F7F70F2306F4FEA30704FEA1A800
:1028F0008347F4FE8507C207C1838E07139707013C
:1029000041838357E4FDBA971397070141838357A7
:10291000C4FD920793960701C1828347F4FE130614
:1029200004FFB29783C787FF9387070393F7F70FD7
:10293000E207E1873E86B6853A85B1338347F4FEE8
:102940008507A307F4FE0347F4FE9147E3F2E7FA95
:102950000100B250225445618280411122C6000814
:10296000A1679387C7A9DC4383D747001397070163
:10297000418383C73183BE861377F70F9387018323
:10298000B6972380E70083C73183850713F7F70FD6
:10299000A389E18203C731838547631AF70003C720
:1029A00001839307500A6304F700A389018203C7D8
:1029B00031838D476317F700A38901820547238A76
:1029C000E1820100324441018280411122C60008A7
:1029D000B70702409387470409671307874BD8C39B
:1029E000B7070240938747049843B707024093878D
:1029F00047041367170098C3B7370140938707C090
:102A000083D7C70093960701C182B73701409387E8
:102A100007C01167558F420741832396E7000100E5
:102A2000324441018280411122C600080547A38A31
:102A3000E182B7070240938747049443B7070240F7
:102A40009387470441677917758F98C3B73701405B
:102A5000938707C083D7C70093960701C182B73712
:102A60000140938707C071777D17758F42074183B7
:102A70002396E7000100324441018280411122C6C1
:102A80000008A1679387C7A9DC4383D74700139742
:102A90000701418383C7B183BE861377F70F9387FE
:102AA0008183B6972380E70083C7B183850713F737
:102AB000F70FA38DE18203C7B1838547631AF7003F
:102AC00003C781839307500A6304F700A38D018233
:102AD00003C7B1838D476317F700A38D01820547B4
:102AE000238EE1820100324441018280411122C6DD
:102AF0000008B70702409387470405671307079646
:102B0000D8C3B7070240938747049843B7070240EA
:102B1000938747041367170098C3B737014093871B
:102B200007C083D7C70093960701C182B73701401A
:102B3000938707C01167558F420741832396E700AB
:102B40000100324441018280411122C6000805473C
:102B5000A38EE182B7070240938747049443B707E7
:102B600002409387470441677917758F98C3B73739
:102B70000140938707C083D7C70093960701C1829E
:102B8000B7370140938707C071777D17758F42076C
:102B900041832396E70001003244410182804111C4
:102BA00022C60008A1679387C7A99C4783D747001F
:102BB000C207C18313F7F70F238FE182010032446C
:102BC00041018280411106C622C40008B7170140A6
:102BD00013850780EFD0FFBFB7170140138507C0EB
:102BE000EFD03FBF37150140EFD0BFBEB717014050
:102BF00013850740EFD0FFBDB7170240DC43C98300
:102C000013F7F700B7177A00938707203307F70207
:102C1000B727F400938707403E9723A4E1848546B5
:102C20000146F167938507200145EF10807F010081
:102C3000B240224441018280797106D622D4001824
:102C4000232EA4FC232CB4FC232AC4FC232604FE3C
:102C500099A00100A16783A7C7A9930500043E8539
:102C6000EFF08FB5AA87FDD7A16783A7C7A9BE8656
:102C7000832784FD13871700232CE4FC8387070038
:102C8000C207C183BE853685EFF02FB08327C4FE0F
:102C900085072326F4FE0327C4FE832744FDE34A69
:102CA000F7FA832744FD3E85B25022544561828065
:102CB000011122CE0010232604FE232404FEB717A0
:102CC00002409443B71702404167558F98C3B71726
:102CD00002409843B7070200F98F2324F4FE8327AC
:102CE000C4FE85072326F4FE832784FE99E7032785
:102CF000C4FE93070050E31CF7FCB717024098434B
:102D0000B7070200F98F89C785472324F4FE19A06D
:102D1000232404FE032784FE85476317F70CB72797
:102D200002409843B72702401367070198C3B727AB
:102D300002409843B7270240719B98C3B7270240CF
:102D40009843B72702401367270098C337170240FC
:102D5000B71702405843D8C337170240B71702408D
:102D60005843D8C337170240B71702405843D8C357
:102D7000B7170240D443B71702403707C1FF7D178A
:102D8000758FD8C3B7170240D443B717024037072F
:102D90002500558FD8C3B71702409443B717024098
:102DA00037070001558F98C30100B71702409843B9
:102DB000B7070002F98FF5DBB7170240D843B71702
:102DC0000240719BD8C3B7170240D843B7170240DF
:102DD00013672700D8C30100B7170240DC4313F77D
:102DE000C700A147E31AF7FE010072440561828023
:102DF000411106C622C40008B71702409843B7170E
:102E000002401367170098C3B7170240D443B7179F
:102E100002403707FFF8758FD8C3B71702409443B5
:102E2000B71702403707F7FE7D17758F98C3B7179E
:102E300002409443B71702403707FCFF7D17758F98
:102E400098C3B7170240D443B7170240370781FF32
:102E50007D17758FD8C3B717024037079F0098C7F3
:102E6000813D0100B240224441018280011106CE21
:102E700022CC00102326A4FE8327C4FE99E78146B6
:102E80000146814501455524A9AA0327C4FE85476B
:102E90006318F7008146014681450545792491A2D2
:102EA0000327C4FE89476318F70081460146814520
:102EB0000945A52C3DA20327C4FE8D476318F700E2
:102EC0008146014681450D458D2421AA0327C4FE74
:102ED00091476318F7008146014681451145B124A9
:102EE00009A20327C4FE95476318F70081460146EF
:102EF000814515451D2CF5A00327C4FE994763188D
:102F0000F70081460146814519450524D9A80327C4
:102F1000C4FE9D476318F7008146014681451D4563
:102F20002924C1A00327C4FEA1476319F7008146E5
:102F30000146814513050002CD2A65A00327C4FE82
:102F4000A5476319F7008146014681451305100224
:102F5000E92A41A80327C4FEA9476319F70081465F
:102F60000146814513050004C922A5A80327C4FE14
:102F7000AD476319F70081460146814513051004EA
:102F80006D2285A00327C4FEB1476319F70081466F
:102F90000146814513052004492AA1A00327C4FE48
:102FA000B5476319F7008146014681451305300492
:102FB000AD2A05A80327C4FEB9476319F700814667
:102FC00001468145130540048D2221A80327C4FE34
:102FD000BD476318F700814601468145130550043B
:102FE000A9220100F240624405618280397106DE47
:102FF00022DC80002326A4FC854513054020EFD069
:103000001FEC0325C4FC9D3503A78184B7C70105C8
:10301000938707D063F6E7003165EFD05FC421A046
:103020002165EFD0DFC3B727014013850740EFD0FC
:103030004FA4232C04FC232E04FC232004FEB707FA
:103040000E002322F4FE232404FE85472306F4FE0B
:10305000930784FDBE85B727014013850740EFD055
:10306000EFA48545B727014013850740EFD02FB364
:10307000B727014013850740EFD04FB60100B727AF
:10308000014013850740EFD08FB7AA87EDFBB72724
:10309000014013850740EFD08FB90100B7270140E9
:1030A00013850740EFD0CFBAAA87EDFB0100F2509D
:1030B000625421618280011106CE22CC00102326A9
:1030C000A4FE2324B4FE8327C4FE93F7F70F8146A2
:1030D0000546BE85B727014013850740EFD04FBA9C
:1030E000B7270140938707409447B727014093874C
:1030F000074037075000558F98C70100B727014098
:10310000938707409C43898BF5DBB7270140938762
:103110000740F847832784FEB357F700C207C183EF
:103120003E85F240624405618280797106D622D4E0
:103130000018232EA4FC232CB4FCB2872328D4FC33
:10314000A30BF4FC8327C4FD958393F7F70F9D8BA6
:10315000A307F4FE8327C4FD93F7F70FFD8B230726
:10316000F4FE0327C4FD93070008630DF7148327BB
:10317000C4FD958391E785451145EFD05FD461A8E3
:103180008327C4FD13D7570085476317F70085458C
:103190002145EFD0DFD241A08327C4FD13D75700CC
:1031A00089476317F70085454145EFD05FD1A5A05A
:1031B0008327C4FD13D757008D476318F700854553
:1031C00013050002EFD0BFCFB9A08327C4FD13D7EA
:1031D000570091476318F700854513050004EFD0A9
:1031E0001FCE15A88327C4FD13D757009547631832
:1031F000F700854513050008EFD07FCC29A8832769
:10320000C4FD13D7570099476317F7008545130589
:103210000010EFD0DFCA8347E4FE0547B317F7007D
:10322000C207C1832310F4FE032784FD854763177B
:10323000F702832704FDC207C183A183C207C183AC
:1032400089E78D472322F4FE11A8832704FDC207D6
:10325000C183A183C207C1832322F4FE832704FD17
:10326000C207C18393F7F70F2324F4FE0347F4FE4C
:10327000A1670A079387C7A6BA979C433E8793071F
:1032800004FEBE853A85EFD0AFE3032784FD854772
:10329000631BF7020347F4FEA1670A079387C7A6DB
:1032A000BA979C43BE868347E4FE0547B317F700F1
:1032B000C207C183034774FD3A86BE853685EFD0C9
:1032C000DF8211A00100B2502254456182807971E1
:1032D00022D60018232EA4FCAE87A30DF4FC83276E
:1032E000C4FD958393F7F70F9D8BA307F4FE832707
:1032F000C4FD93F7F70FFD8B2307F4FE0347B4FDDE
:1033000085476312F7028347E4FE0547B316F700CB
:103310000347F4FEA1670A079387C7A6BA979C43A1
:10332000368798CB05A08347E4FE0547B316F70020
:103330000347F4FEA1670A079387C7A6BA979C4381
:103340003687D8CB0100325445618280797122D60C
:103350000018232EA4FC8327C4FD958393F7F70F51
:103360009D8BA307F4FE8327C4FD93F7F70FFD8B16
:103370002307F4FE0347F4FEA1670A079387C7A655
:10338000BA979C439C470347E4FE85463397E60083
:10339000F98F99C3854711A081473E853254456115
:1033A0008280411106C622C40008EFC07FD9AA87D7
:1033B0003E85B240224441018280011106CE22CCDA
:1033C0000010AA87A307F4FE8347F4FE89E71305DC
:1033D0008008EFC05FD70100F2406244056182803F
:1033E000011106CE22CC00102326A4FE0327C4FE22
:1033F000930700206307F7240327C4FE93070020E8
:1034000063EAE70A0327C4FE930710106300F71C62
:103410000327C4FE9307101063E2E7040327C4FEEA
:103420008947630DF7160327C4FE894763ECE7005D
:103430008327C4FE638407140327C4FE85476307FC
:10344000F714E5AC0327C4FE8D476301F716032785
:10345000C4FE930700106303F716C5A40327C4FE38
:1034600093070011630CF7180327C4FE930700119C
:1034700063EFE7000327C4FE930720106300F716ED
:103480000327C4FE930730106302F7167DA40327B9
:10349000C4FE930720116304F7180327C4FE9307A3
:1034A00020116365F7160327C4FE930730116301EB
:1034B000F71861A40327C4FE930730216300F720A7
:1034C0000327C4FE9307302163EEE7040327C4FEFD
:1034D000930730206300F71A0327C4FE93073020B8
:1034E00063EFE7000327C4FE930710206303F7167A
:1034F0000327C4FE930720206305F7163DAC03277E
:10350000C4FE930710216309F7180327C4FE93072D
:10351000102163ECE7180327C4FE9307002163041E
:10352000F71621AC0327C4FE930700306303F71C92
:103530000327C4FE9307003063EFE7000327C4FEB0
:10354000930700226305F7180327C4FE9307102290
:103550006308F718DDA20327C4FE93072030630C2D
:10356000F71A0327C4FE93072030636DF71803276B
:10357000C4FE930730306309F71AC1A29306803165
:10358000014685452145EFF05FBA45AA9306803193
:10359000014685452545EFF05FB945A29306803188
:1035A000014685452945EFF05FB841AA9306803171
:1035B000014685452D45EFF05FB741A29306803166
:1035C000014685450145EFF05FB685AA9306803137
:1035D000014685450545EFF05FB585A2930680312C
:1035E000014685450945EFF05FB481AA9306803115
:1035F000014685450D45EFF05FB381A2930680310A
:10360000014685453D45EFF05FB205AA930680313E
:103610000146854513053002EFF03FB139AA930604
:103620008031014685451305A002EFF01FB031A29D
:1036300093068031014685451305B002EFF0FFAED9
:10364000EDA893068031014685451945EFF0FFADA1
:10365000EDA093068031014685451D45EFF0FFAC96
:10366000E9A8930680310146854513050002EFF075
:10367000DFABE1A0930680310146854513051002BA
:10368000EFF0BFAA5DA8930680310146854513057A
:103690006004EFF09FA955A093068031014685454F
:1036A00013057004EFF07FA849A893068031014606
:1036B000854513058004EFF05FA741A09306803194
:1036C0000146854513059004EFF03FA6BDA0930683
:1036D00080310146854513054002EFF01FA5B1A8D2
:1036E000930680310146854513055002EFF0FFA394
:1036F000A9A0930680310146854513056002EFF0CD
:10370000DFA225A893068031014685451305700286
:10371000EFF0BFA11DA0930680310146854513053A
:103720008002EFF09FA011A89306803101468545E5
:1037300013059002EFF07F9F01000100F240624408
:1037400005618280397106DE22DC80002326A4FC1C
:103750002324B4FC2322C4FC231704FE0325C4FC49
:10376000EFF01FC88327C4FCA18381EB85458567E3
:1037700013850780EFD0AFF4A1A08327C4FC13D733
:10378000870085476317F70085450545EFD08FF71C
:1037900005A88327C4FC13D7870089476317F70060
:1037A00085450945EFD00FF621A88327C4FC13D720
:1037B00087008D476316F70085451145EFD08FF4DC
:1037C00085450545EFD0AFEF8327C4FC13D74700ED
:1037D000C147631AF7008545B7071600138507042C
:1037E000EFD02FB4B9A88327C4FC13D74700C5472F
:1037F000631AF7008545B707180013850730EFD027
:103800004FB281A08327C4FC13D74700930710024F
:10381000631AF7008545B7171A00138507C0EFD064
:103820004FB005A08327C4FC13D74700930720029D
:103830006319F7008545B7171A0013850780EFD085
:103840004FAEB7170240DC43C98313F7F700B71731
:103850007A00938707203307F702B727F40093878E
:1038600007403E9723A4E18403A78184832784FC37
:10387000B357F702C1832317F4FE03A7818483574C
:10388000E4FE8507BE86832784FCB387F602B35720
:10389000F7022316F4FE0357C4FE832744FC3307C4
:1038A000F702896793870771B357F7022315F4FE70
:1038B0008357C4FEFD17C207C1832312F4FE83574A
:1038C000E4FE2310F4FE231304FE231104FE23045C
:1038D00004FE930700072318F4FC85472319F4FC22
:1038E000231A04FC8357A4FE231BF4FC8947231CE2
:1038F000F4FC8947231DF4FC231E04FC231F04FC55
:103900008327C4FC13D78700A1670A079387C7A83A
:10391000BA979C433E87930704FEBE853A85EFD055
:103920004FFC8327C4FC8D8BB9EF8327C4FC13D7CE
:103930008700A1670A079387C7A8BA979C433E8769
:10394000930704FDBE853A85EFD05F898327C4FCC9
:1039500013D78700A1670A079387C7A8BA979C4324
:10396000A1453E85EFE04F868327C4FC13D787002F
:10397000A1670A079387C7A8BA979C4391453E85DC
:10398000EFE04F9989A28327C4FC13F737008547DE
:103990006311F7068327C4FC13D78700A1670A07C2
:1039A0009387C7A8BA979C433E87930704FDBE85BB
:1039B0003A85EFD0BF998327C4FC13D78700A1674E
:1039C0000A079387C7A8BA979C43A1453E85EFE0B5
:1039D0006F848327C4FC13D78700A1670A079387E6
:1039E000C7A8BA979C43930500403E85EFE04F97E8
:1039F000D9A88327C4FC13F7370089476310F7065B
:103A00008327C4FC13D78700A1670A079387C7A839
:103A1000BA979C433E87930704FDBE853A85EFD055
:103A20005FAE8327C4FC13D78700A1670A0793877B
:103A3000C7A8BA979C43A1453E85EFE04F838327F3
:103A4000C4FC13D78700A1670A079387C7A8BA9752
:103A50009C4391453E85EFE00F96B5A08327C4FCBB
:103A600013F737008D476310F7068327C4FC13D77D
:103A70008700A1670A079387C7A8BA979C433E8728
:103A8000930704FDBE853A85EFD0BFC28327C4FCEF
:103A900013D78700A1670A079387C7A8BA979C43E3
:103AA000A1453E85EFE06F818327C4FC13D78700D3
:103AB000A1670A079387C7A8BA979C43930500405C
:103AC0003E85EFE00F948327C4FC13D78700A167DE
:103AD0000A079387C7A8BA979C4385453E85EFD0D0
:103AE000BFD58327C4FC13D78700A1670A07938734
:103AF000C7A8BA979C4385453E85EFD07FD9010082
:103B0000F250625421618280797122D60018232EEE
:103B1000A4FC232CB4FC8327C4FD13D78700A16722
:103B20000A079387C7A8BA979C4383D7C70223176E
:103B3000F4FE0357E4FE832784FD3307F702896709
:103B400093870771B357F7022316F4FE8327C4FD4A
:103B5000A18385E38327C4FD13F73700B75700100F
:103B60009387D7B0BA978A073E878357C4FE1CC392
:103B700049A08327C4FD13D7870085476310F70248
:103B80008327C4FD13F73700B7070010B507BA97AE
:103B90008A073E878357C4FE1CC3A1A88327C4FDA0
:103BA00013D7870089476311F7028327C4FD13F7F2
:103BB0003700B70700109387D710BA978A073E8758
:103BC0008357C4FE1CC335A08327C4FD13D78700C9
:103BD0008D476310F7028327C4FD13F73700B7073B
:103BE00000109387D720BA978A073E878357C4FE71
:103BF0001CC30100325445618280011106CE22CCE3
:103C000000102326A4FE2324B4FE2322C4FE232076
:103C1000D4FE8327C4FE89EB930680310546854593
:103C20001545EFF08FD099A80327C4FEC147631B49
:103C3000F700930680310546854513053002EFF005
:103C4000CFCE2DA80327C4FE93070002631BF70005
:103C500093068031054685451305D002EFF0EFCC81
:103C600031A89D679386073AA1671386C7A7930576
:103C7000D0029D671385473AEF103061032784FE19
:103C80008547631AF70093068031054685451D4533
:103C9000EFF0AFC999A8032784FEC547631BF7005F
:103CA000930680310546854513055002EFF0EFC7B6
:103CB0002DA8032784FE93071002631BF7009306C9
:103CC0008031054685451305F002EFF00FC631A897
:103CD0009D679386073AA1671386C7A793052003BC
:103CE0009D671385473AEF10505A032744FE8947D2
:103CF000631AF70093068031054685451945EFF0B4
:103D0000CFC2B5A0032744FEC947631BF700930643
:103D100080310546854513054002EFF00FC181A8AB
:103D2000032744FE93072002631BF70093068031AC
:103D3000054685451305E002EFF02FBF0DA80327C8
:103D400044FE930730026317F700930730022322E3
:103D5000F4FE31A89D679386073AA1671386C7A72B
:103D6000930580039D671385473AEF101052930621
:103D7000003105468545032504FEEFF00FBB010029
:103D8000F2406244056182805D7186C6A2C48008EB
:103D90002326A4FC2324B4FC2322C4FC2320D4FC2B
:103DA000232EE4FA232A04FBA30DF4FA8327C4FC90
:103DB00081EB8545856713851700EFD04F9031A8BB
:103DC0000327C4FC8547631AF70085451165EFD0CA
:103DD0006F9385450545EFD08F8E8326C4FB032660
:103DE00004FC832544FC032584FC013D231E04FCC4
:103DF00093074010231FF4FC231004FE8347B4FBF9
:103E000005476383E70205476344F70089CB81A038
:103E100009476381E7020D476384E7020DA8231178
:103E200004FE231204FE25A0231104FE854723125D
:103E3000F4FE31A889472311F4FE231204FE01A8E1
:103E400089472311F4FE85472312F4FE01009307EE
:103E500000202313F4FE832744FBC207C1838E078F
:103E6000C207C1832314F4FE231504FE9D472316C5
:103E7000F4FE0327C4FC0A0793870181BA979C4389
:103E80003E879307C4FDBE853A85EFD06F90032728
:103E900084FCC1476316F70085450545EFC07FC820
:103EA0000327C4FC0A0793870181BA979C43854581
:103EB0003E85EFD06F9D0100B6402644616182804F
:103EC000011122CE00102326A4FE2324B4FE2322B7
:103ED000C4FE2320D4FE59A8832784FE138717002D
:103EE0002324E4FE83C607000327C4FE0A07938742
:103EF0000181BA979C433E8793970601C18323169D
:103F0000F70001000327C4FE0A0793870181BA97CF
:103F10009C4383D78700C207C183898BE5D783275A
:103F200044FEA9C701000327C4FE0A079387018145
:103F3000BA979C4383D78700C207C183858BE5D797
:103F40000327C4FE0A0793870181BA979C4383D74E
:103F5000C70093960701C182832744FE1387170089
:103F60002322E4FE13F7F60F2380E700832704FEE5
:103F70001387F7FF2320E4FEA5F3010072440561D7
:103F80008280011122CE00102324A4FE2326B4FE39
:103F900037F700E02320070037F700E0230207008F
:103FA00037F700E0A302070037F700E0230307001C
:103FB00037F700E0A303070037F700E0230407000A
:103FC00037F700E0A304070037F700E023050700F8
:103FD00037F700E0A305070037F700E0854614C374
:103FE000010037F700E011071843BA87014803279B
:103FF000C4FEC286636DD7000327C4FEC286E312E7
:10400000D7FE032784FEBE866363D700D9BF0100B5
:10401000724405618280011106CE22CC0010232655
:10402000A4FE2324B4FE8327C4FE81EB91460146FF
:1040300081452145EFF06F8F59A80327C4FE8947BA
:104040006319F7009146014681450145EFF0EF8D78
:10405000BDA80327C4FE91476319F70091460146A6
:1040600081453D45EFF06F8C9DA00327C4FE994725
:104070006319F7009146014681451945EFF0EF8A33
:10408000B9A00327C4FEA147631AF7009146014671
:10409000814513056004EFF04F8915A80327C4FE7E
:1040A000A947631AF700914601468145130540026E
:1040B000EFF0AF8729A80327C4FEB1476319F700C3
:1040C00091460146814513056002EFF00F860327F4
:1040D00084FE85476319F7009146014681452545D1
:1040E000EFF0AF8461A8032784FE8D476319F700C2
:1040F0009146014681450545EFF02F8341A00327F6
:1041000084FE9547631AF7009146014681451305E1
:104110003002EFF08F819DA0032784FE9D47631935
:10412000F7009146014681451D45EFF00F80B9A08B
:10413000032784FEA547631AF7009146014681458F
:1041400013057004EFE07FFE15A8032784FEAD473A
:10415000631AF70091460146814513055002EFE0CE
:10416000DFFC29A8032784FEB5476319F7009146B1
:104170000146814513057002EFE03FFB0100F2406C
:10418000624405618280797106D622D40018232EFC
:10419000A4FC232CB4FC232AC4FC8327C4FD81EB9C
:1041A0008545856713850780EFC07FD135A8032734
:1041B000C4FD85476317F70085450545EFC09FD4CB
:1041C00025A00327C4FD89476317F70085450945E6
:1041D000EFC05FD311A80327C4FD8D476316F70016
:1041E00085451145EFC01FD2832544FD032584FD7D
:1041F0001D3585450545EFC09FCC032784FD9147BC
:10420000631FF700032744FD9547631AF7008545B0
:10421000B707180013850730EFC0BF90A1A0032790
:1042200084FDA147631FF700032744FDA547631AD8
:10423000F7008545B7171A00138507C0EFC07F8EBA
:1042400015A0032784FDA947631EF700032744FD3B
:10425000AD476319F7008545B7171A001385078026
:10426000EFC03F8C930744FE3E85EFD02FD98547A2
:104270002312F4FEFD572314F4FE231504FE23132A
:1042800004FE230604FEA1670327C4FD0A079387E3
:10429000C7A8BA979C433E87930744FEBE853A85DC
:1042A000EFC03FE4A1670327C4FD0A079387C7A8AF
:1042B000BA979C438146014689453E85EFD04FE33E
:1042C000A1670327C4FD0A079387C7A8BA979C4331
:1042D00085453E85EFD04FD60100B250225445614E
:1042E0008280011122CE00102326A4FEA16703279D
:1042F000C4FE0A079387C7A8BA979C4383D747028F
:10430000C207C183C207C1873E85724405618280AE
:10431000011122CE00102326A4FEA1670327C4FEAC
:104320000A079387C7A8BA979C4323920702010004
:10433000724405618280011106CE22CC0010232632
:10434000A4FE2324B4FE8327C4FE85E7032784FE4E
:1043500085476310F7029306803101468545254560
:10436000EFE0BFDC9146014681452945EFE0FFDBE8
:1043700065A00327C4FE89476312F70293068031C4
:104380000146854513056002EFE03FDA914601469C
:10439000814513057002EFE05FD9BDA80327C4FE75
:1043A000C1476310F70293068031014685450945F0
:1043B000EFE0BFD79146014681450D45EFE0FFD6BE
:1043C000A1A80327C4FE930700026312F702930615
:1043D0008031014685451305A002EFE01FD59146C7
:1043E000014681451305B002EFE03FD435A0032715
:1043F000C4FE930720026311F70293068031014641
:1044000085451305A004EFE05FD291460146814542
:104410001305B004EFE07FD10100F2406244056172
:104420008280797106D622D40018232EA4FC232C76
:10443000B4FC232AC4FC2328D4FC85450545EFC0E1
:104440001FA8832504FD032544FDF535032744FDFE
:104450008947631BF700032704FD8D476316F700A8
:1044600085451145EFC0EFEB032744FD930720027C
:10447000631FF700032704FD930730026319F70059
:104480008545B707140013850701EFC08FE983271F
:10449000C4FD91E785451165EFC07FA235A00327D4
:1044A000C4FD85476318F700854537050200EFC056
:1044B0007FA519A80327C4FD89476317F700854521
:1044C00037050400EFC01FA4832784FD2320F4FEDA
:1044D000231204FE231304FE231404FE231604FEF9
:1044E000B1472315F4FEA1670327C4FD0A0793878C
:1044F000C7A9BA979C433E87930704FEBE853A85B9
:10450000EFD06FFFA1670327C4FD0A079387C7A9F0
:10451000BA979C4385453E85EFD03FA10100B2503C
:10452000225445618280011122CE00102326A4FE70
:10453000AE87A305F4FE0100A1670327C4FE0A07A6
:104540009387C7A9BA979C4383D70700C207C18343
:1045500093F70708F5D3A1670327C4FE0A079387DB
:10456000C7A9BA979C433E878347B4FEC207C1835D
:104570002312F7000100724405618280011106CE0A
:1045800022CC0010230604FEB73702409387674011
:1045900083C70700A305F4FE8347B4FE898BE38736
:1045A000071AB73702409387774083C7070093F70E
:1045B000F70F93F7F70313070003E36CF71613974E
:1045C0002700A167938747B3BA979C438287B73781
:1045D00002409387674083C7070093F7F70F93F76D
:1045E0000704E38A0714B73702409387874083C7DD
:1045F000070013F7F70F2388E184A30604FE35A014
:1046000003A741828347D4FE3E9783A64182834716
:10461000D4FE93870704B697034707002380E7007B
:104620008347D4FE8507A306F4FE83C7018593F76D
:10463000F70F0347D4FEE365F7FCB73702409387D3
:10464000874303C701851377F70F2380E700B73748
:1046500002409387A74383C7070013F7F70FB737C5
:1046600002409387A743719B1377F70F2380E700DE
:10467000B73702409387674009472380E7006F0000
:10468000900BB73702409387A74383C7070093F780
:10469000F70FE207E187F19BE207E18793E7270045
:1046A000139787016187B73702409387A743137732
:1046B000F70F2380E700B737024093876740094729
:1046C0002380E7006F009007B737024093872743A6
:1046D000130720FC2380E700B73702409387874009
:1046E00083C70700A307F4FE0347F4FEA14763173F
:1046F000F75C83A7018203C7670083C77700A2071F
:10470000D98F1397070141832397E18483A70182FF
:1047100003C71700A386E18483A7018283C707002C
:104720002307F4FEA30704FE230604FE83A70182E9
:1047300083C7070093F70706ADCF83C7D18413075C
:104740001002638BE70013072002638DE7561307FF
:104750000002638BE75691A837070020130747072D
:1047600023AAE1849D47A307F4FE83D7E1849396AF
:104770000701C18221476373D700A147C207C183E4
:10478000A307F4FE03A7018283A741858346F4FEB5
:104790003686BE853A85EF10403503A741858347AD
:1047A000F4FE3E9723AAE1841DABFD572306F4FED9
:1047B0003DA383C7D1842947636DF74E1397270024
:1047C000A167938787BFBA979C43828783A701829B
:1047D00003C7270083C73700A207D98FC207C18349
:1047E000A183C207C18309476381E7020D4763883C
:1047F000E70205476398E70A21671307C7AA23AAB8
:10480000E184C947A307F4FE55A02167130707AC4D
:1048100023AAE18493073004A307F4FE41A883A7E9
:10482000018203C7270083C73700A207D98FC207B9
:10483000C18393F7F70F0547638EE700054763448D
:10484000F7009DCB99A80947638FE7000D47638D5B
:10485000E702A1A02167130787B123AAE184B94722
:10486000A307F4FE3DA82167130787B223AAE184BA
:10487000B147A307F4FE35A01387818123AAE18401
:104880009147A307F4FE31A82167130747B023AA75
:10489000E184D147A307F4FE29A0FD572306F4FEC7
:1048A000010029A0FD572306F4FE01008347F4FE12
:1048B00013970701418383D7E1846379F700834726
:1048C000F4FE1397070141832397E18483D7E184A2
:1048D00093960701C182130700046374D7009307FE
:1048E0000004C207C183A307F4FE03A7018283A7C4
:1048F00041858346F4FE3686BE853A85EF10E01E7C
:1049000003A741858347F4FE3E9723AAE184C1AE05
:1049100083A7018203C7270083C73700A207D98F67
:10492000C207C18393F7F70F1397070141832397BA
:10493000E18475A683A7018203C7C1842380E700B1
:1049400003D7E184854763F3E73805472397E1847C
:10495000B5AE83A7018203C7270083C73700A2072C
:10496000D98FC207C18313F7F70F2386E18485AE81
:1049700083A7018283C70700FD8B8DEF83A7018288
:1049800003C7270083C73700A207D98F13970701F2
:1049900041838547631CF7009307000A93F70702DA
:1049A00063980732FD572306F4FE1DA6FD57230624
:1049B000F4FE39AE83A7018283C7070013F7F7011E
:1049C00089476313F71083A7018203C7470083C792
:1049D0005700A207D98FC207C18393F7F70F094782
:1049E000638DE70409476346F70005476386E70AD6
:1049F000F9A0130710086385E706130720086390E2
:104A0000E70CB73702409387A74383C7070093F7A4
:104A1000F70FE207E18793F7C7FBE207E18793E728
:104A20002700139787016187B73702409387A74311
:104A30001377F70F2380E70061A8B7370240938709
:104A4000A74383C7070013F7F70FB73702409387D1
:104A5000A743137737071377F70F2380E7008DA855
:104A6000B73702409387674383C7070093F7F70F71
:104A7000E207E18793F7C7FBE207E18793E72700A7
:104A8000139787016187B73702409387674313778E
:104A9000F70F2380E7002DA8B737024093876743BD
:104AA00083C7070013F7F70FB737024093876743B1
:104AB000137737071377F70F2380E70011A8FD5707
:104AC0002306F4FE010029A0FD572306F4FE09A4E5
:104AD00001A483A7018283C70700FD8B8DEF83A705
:104AE000018203C7270083C73700A207D98F139716
:104AF000070141838547631CF7009307000A93F77A
:104B000007026399071CFD572306F4FEE1A2FD5737
:104B10002306F4FEC1A283A7018283C7070013F70F
:104B2000F70189476313F71483A7018203C727009E
:104B300083C73700A207D98FC207C18363930712C7
:104B400083A7018203C7470083C75700A207D98FF5
:104B5000C207C1830947638DE70409476346F7002D
:104B60000547638FE70ACDA813071008638EE70691
:104B7000130720086392E70EB73702409387A743D5
:104B800083C7070093F7F70FE207E18793F7C7079B
:104B9000E207E18793E73700139787016187B7370B
:104BA00002409387A7431377F70F2380E700D1A034
:104BB000B73702409387A74383C7070093F7F70FE0
:104BC000E207E18793F73707E207E18793E7C7003A
:104BD000139787016187B73702409387A7431377FD
:104BE000F70F2380E70071A0B73702409387674330
:104BF00083C7070093F7F70FE207E18793F7C7072B
:104C0000E207E18793E73700139787016187B7379A
:104C10000240938767431377F70F2380E70091A83B
:104C2000B73702409387674383C7070093F7F70FAF
:104C3000E207E18793F73707E207E18793E7C700C9
:104C4000139787016187B7370240938767431377CC
:104C5000F70F2380E70031A8FD572306F4FE01007B
:104C600009A8FD572306F4FEB5A0FD572306F4FE60
:104C700095A08DA083A701822380070003D7E1843C
:104C8000854763FBE70405472397E184B1A083A729
:104C900001822380070083A7018285072380070004
:104CA00003D7E184894763FBE70209472397E1843F
:104CB00035A0FD572306F4FE010015A0FD5723067D
:104CC000F4FE31A8010021A8010011A8010001A8EB
:104CD000010031A0010021A0010011A00100034743
:104CE000C4FE9307F00F631BF700B73702409387AA
:104CF00027431307F0FC2380E70089A48307E4FE21
:104D000063DF070283D7E18493960701C18213070B
:104D100000046374D70093070004C207C183A3078C
:104D2000F4FE03D7E1848347F4FEC207C183B307CF
:104D3000F7401397070141832397E18419A0A30744
:104D400004FEB7370240938707430347F4FE2380EE
:104D5000E700B737024093872743130700FC2380FF
:104D6000E700E9AA83C7D1841547638EE70819478E
:104D70006392E70E83D7E18493960701C1821307FC
:104D800000046374D70093070004C207C183A3071C
:104D9000F4FE03A7018283A741858346F4FE36868D
:104DA000BE853A85EF00705403D7E1848347F4FE53
:104DB000C207C183B307F7401397070141832397C5
:104DC000E18403A741858347F4FE3E9723AAE1844B
:104DD000B7370240938707430347F4FE2380E70079
:104DE000B73702409387274383C7070013F7F70FAE
:104DF000B737024093872743134707041377F70F0A
:104E00002380E700B5A0B73702409387374083C7B8
:104E1000070093F7F70FE207E18793F707F8139777
:104E20008701618783D7E184E207E187D98F1397F0
:104E300087016187B7370240938737401377F70FB1
:104E40002380E700B7370240938727430947238031
:104E5000E70039A8B737024093870743238007004C
:104E6000B73702409387274309472380E7000100B3
:104E7000F1A003C7D184930700026312F704B73788
:104E800002409387674083C7070093F7F70F93F7B4
:104E90000704C5C7B737024093870743238007003D
:104EA000B737024013872743B7370240938727431A
:104EB000034707001377F70F2380E700BDA8B73734
:104EC00002409387074323800700B7370240938748
:104ED000274383C7070013F7F70FB73702409387BD
:104EE0002743136727001377F70F2380E700B1A04C
:104EF000B73702409387474323800700B737024004
:104F00009387674383C7070093F7F70FE207E187AB
:104F1000F19BE207E18793E72700139787016187F9
:104F2000B7370240938767431377F70F2380E70073
:104F300031A0010021A0010011A00100B7370240FB
:104F40009387674009472380E70069A88347B4FE39
:104F5000858BB9CFB737024093873740238007004E
:104F6000B73702409387274309472380E700B737C5
:104F700002409387674349472380E700B7370240E1
:104F80009387A74349472380E700B73702409387B9
:104F9000674083C7070013F7F70FB73702409387BF
:104FA0006740136717001377F70F2380E7001DA8EA
:104FB0008347B4FE918B99CFB73702409387574010
:104FC00083C70700B73702409387674011472380A4
:104FD000E70009A8B7370240938767400347B4FE4C
:104FE0002380E7000100F2406244056182804111A4
:104FF00022C60008EFF08FD801003244410173004F
:105000002030411122C600080545EFB02FF52A8750
:1050100085476315F7000545EFB0AFF9010032444D
:10502000410173002030411122C600080945EFB04C
:10503000EFF22A8785476314F70203A701848D479F
:105040006315F700EFD09FAA01A803A70184894741
:105050006314F700EFD07F970945EFB08FF501009B
:105060003244410173002030411122C6000811452D
:10507000EFB0CFEE2A8785476315F7001145EFB0F3
:105080004FF301003244410173002030411122C628
:1050900000082145EFB08FEC2A8785476315F7009C
:1050A0002145EFB00FF1010032444101730020307F
:1050B000411122C600084145EFB04FEA2A878547D3
:1050C0006315F7004145EFB0CFEE010032444101D6
:1050D00073002030411122C6000813050002EFB012
:1050E000EFE72A8785476317F70013050002EFB043
:1050F0004FECA5A013050004EFB04FE62A878547C3
:105100006317F70013050004EFB0AFEAB9A0130569
:105110000008EFB0AFE42A8785476317F70013054F
:105120000008EFB00FE915A813050010EFB00FE36A
:105130002A8785476317F70013050010EFB06FE764
:1051400029A813050020EFB06FE12A878547631671
:10515000F70013050020EFB0CFE501003244410114
:1051600073002030411122C6000813050040EFB043
:10517000EFDE2A8785476317F70013050040EFB07D
:105180004FE39DA8856713850780EFB02FDD2A8741
:1051900085476318F700856713850780EFB06FE1D7
:1051A000A1A80565EFB08FDB2A8785476316F70056
:1051B0000565EFB00FE089A00965EFB02FDA2A8707
:1051C00085476316F7000965EFB0AFDE35A01165BE
:1051D000EFB0CFD82A8785476316F7001165EFB087
:1051E0004FDD19A82165EFB06FD72A878547631572
:1051F000F7002165EFB0EFDB01003244410173009D
:105200002030411122C600080100324441017300E0
:105210002030411122C6000893050008B73701402D
:10522000138507C0EFC05FA3AA8789CB9305000849
:10523000B7370140138507C0EFC01FA901003244F2
:10524000410173002030411122C600088545B7375F
:105250000140138507C0EFC03FA0AA8781CB8545D9
:10526000B7370140138507C0EFC01FA601003244C5
:10527000410173002030411122C60008930500044B
:10528000B7370140138507C0EFC01F9DAA8789CBA0
:1052900093050004B7370140138507C0EFC0DFA2B4
:1052A00093050002B7370140138507C0EFC0DF9AAE
:1052B000AA8789CB93050002B7370140138507C041
:1052C000EFC09FA001003244410173002030411122
:1052D00022C600088945B7370140138507C0EFC0D3
:1052E000BF97AA8781CB8945B7370140138507C08F
:1052F000EFC09F9D9145B7370140138507C0EFC0B0
:10530000BF95AA8781CB9145B7370140138507C068
:10531000EFC09F9BA145B7370140138507C0EFC081
:10532000BF93AA8781CBA145B7370140138507C03A
:10533000EFC09F99C145B7370140138507C0EFC043
:10534000BF91AA8781CBC145B7370140138507C0FC
:10535000EFC09F970100324441017300203041119A
:1053600022C60008854537050040EFC0FF8EAA879A
:1053700091C7854537050040EFC01F9501003244B5
:10538000410173002030411122C600088545B7074E
:10539000004013850740EFC03F8CAA8781CB85452D
:1053A000B707004013850740EFC01F920100324449
:1053B000410173002030411122C600088545B7170E
:1053C000004013850780EFC03F89AA8781CB8545C0
:1053D000B717004013850780EFC01F8F01003244CC
:1053E000410173002030411122C60008930550523C
:1053F000B747014013850780EFC07FC0AA8785CBE0
:1054000093055052B747014013850780EFC05FCF27
:1054100003A7418485476315F700EFD04FF801A833
:1054200003A7418489476314F700EFC05FD20100EE
:105430003244410173002030411122C60008930517
:105440005052B747004013850740EFC05FBBAA87A3
:1054500085CB93055052B747004013850740EFC0F6
:105460003FCA03A701848D476315F700EFD00FE112
:1054700001A803A7018489476314F700EFD0EFCD9B
:1054800001003244410173002030411122C600085E
:1054900093055052B757004013850780EFC03FB6C1
:1054A000AA8789CB93055052B757004013850780D0
:1054B000EFC01FC50100324441017300203041118B
:1054C00022C600080965EFB02FA02A87854763141C
:1054D000F7020965EFB00FA503A701848D47631597
:1054E000F700EFD06FE601A803A701848947631492
:1054F000F700EFD04FD30100324441017300203058
:10550000411122C6000801003244410173002030DD
:10551000411122C6000801A0411106C622C44AC298
:105520004EC00008EFD0FFE7EFD0CFE97922194550
:105530002D2A130500040D2C1307C0049306A004A4
:105540002D46A145130590041D26814685671386C7
:105550008738930510211305002169260D468945DA
:1055600005453129930600310546814513050004A0
:10557000EFD0BFBB0145EFD05FE4130500042D2C35
:1055800005479306007D13060021AD452145612E98
:1055900005479306007D130610219305C0041305EB
:1055A000A0045126054519212A8723ACE1848145B1
:1055B0001945D9282A8723AEE1849D6713860743BE
:1055C00091451545A92283A7C185C207C1873E869B
:1055D000914513058002ED28130500044D2AAA8782
:1055E000C207C1873E86994513058002D5209D6775
:1055F000938507430145912983A7C185BE85014550
:10560000F92E9D671386874389451545092283A78F
:105610008185C207C1873E868945130580024D28D2
:105620009D679385074401450D2183A78185BE852C
:10563000014575269D67938587440145392193056A
:10564000007D0145692E03A781848967938707F44C
:105650003357F7029307401FB307F7023E8981498A
:105660004A85CE85EFE0FF9121BF011106CE22CC05
:1056700000102326A4FE0325C4FEEFD03F970100AF
:10568000F240624405618280011106CE22CC0010F6
:105690002326A4FE2324B4FE832584FE0325C4FE12
:1056A000EFD07FA1AA873E8723A0E18683A701864A
:1056B0003E85F240624405618280411106C622C4E3
:1056C0000008EFC01FC80100B2402244410182809F
:1056D000011106CE22CC0010AA87AE86328723178E
:1056E000F4FEB6872316F4FEBA872315F4FE83165C
:1056F000A4FE0357C4FE8357E4FE3686BA853E8572
:10570000EFD04F8E0100F2406244056182800111AA
:1057100006CE22CC0010AA872E872324C4FE23178E
:10572000F4FEBA872316F4FE0357C4FE8357E4FE43
:10573000032684FEBA853E85EFD00F830100F24038
:10574000624405618280011106CE22CC0010AA8736
:105750002317F4FE8357E4FE3E85EFC07FEC010083
:10576000F240624405618280011106CE22CC001015
:105770002326A4FE93060031014681450325C4FE7D
:10578000EFD0BF9A0100F2406244056182800111AE
:1057900006CE22CC00102326A4FE0325C4FEEFD0A3
:1057A000FFBAAA873E872382E18683C741863E856A
:1057B000F240624405618280797106D622D44AD2D1
:1057C0004ED052CE56CC0018232EA4FC69A09D6763
:1057D0001386074581451545EFF07FF30325C4FD8A
:1057E000EFF0FFFAAA87A5CB03A781848967938787
:1057F00007F43357F7029307800CB307F7023E898B
:1058000081494A85CE85EFE0CFF70325C4FDEFF04F
:105810001FF8AA87A9C30547A382E186C16713853C
:10582000F7FFEFF05FF29D671386874685451545C4
:10583000EFF0FFED03A781848967938707F433575F
:10584000F7029307803EB307F7023E8A814A5285EA
:10585000D685EFE00FF383875186B5DB0100B250A8
:10586000225412598259724AE24A45618280797102
:1058700006D622D400182326A4FE2324B4FE232215
:10588000C4FE2320D4FE232EE4FC930600310546FB
:1058900085450325C4FEEFD05F899306003101469C
:1058A0008545032584FEEFD05F88930600310146CD
:1058B0008545032544FEEFD05F87930600310146FE
:1058C0008545032504FEEFD05F869306003101462F
:1058D00085450325C4FDEFD05F850100B2502254F9
:1058E00045618280011106CE22CC00102326A4FE41
:1058F0002324B4FE2322C4FE2320D4FE032604FE68
:10590000832544FE0325C4FEEFD0DFE3032604FE17
:10591000832544FE032584FEEFD0DFE20100F24040
:10592000624405618280797106D622D4001823264C
:10593000A4FE2324B4FE2322C4FE2320D4FEBA876F
:10594000A30FF4FC8347F4FDBE850325C4FEEFD00E
:105950001F988347F4FD93B7170093F7F70FBE85A1
:10596000032584FEEFD0BF96832504FE032544FE65
:10597000EFE08F990100B2502254456182800111FD
:1059800006CE22CC00102326A4FE2324B4FE23221C
:10599000C4FE032644FE832584FE0325C4FEEFE0F7
:1059A0008FFE0100F240624405618280011106CE43
:1059B00022CC00102326A4FE0325C4FEEFE07F9234
:1059C000AA873E8723A4E1860325C4FEEFE05F9407
:1059D00083A781863E85F2406244056182807971A9
:1059E00006D622D40018232EA4FC232CB4FC1307C3
:1059F00004FE832684FD9D6713868747A9453A8563
:105A0000EF005006232604FE25A08327C4FE1307BB
:105A100004FFBA97838707FF93F7F70FBE85032527
:105A2000C4FDEFE05FB08327C4FE85072326F4FEA4
:105A30008327C4FE130704FFBA97838707FFF1F794
:105A40000100B250225445618280011106CE22CC61
:105A500000102326A4FE2324B4FE31A8832784FE4D
:105A6000138717002324E4FE83C70700BE850325A0
:105A7000C4FEEFE05FAB832784FE83C70700F9FF16
:105A80000100F2406244056182809387C1809C439B
:105A90004111328806C6AA882E87C84736869727BE
:105AA0000000938767186317080097270000938703
:105AB00067183E88C686972500009385E51719204C
:105AC000EF00D020397132D436D63EDA3AD842DCF3
:105AD00046DE9387C1802E86AA858843341006CE81
